:020000040000FA
:1000000070A50020D5040000FB0400000DA4000032
:1000100000000000000000000000000000000000E0
:10002000000000000000000000000000FF040000CD
:1000300000000000000000000105000003050000B2
:100040000505000005050000050500000505000088
:100050000505000005050000050500000505000078
:10006000A5C40000F9C50000050500000505000055
:1000700051C60000BDC6000041BF000005050000DC
:100080000505000005050000050500000505000048
:100090000505000005050000050500000505000038
:1000A000050500000505000091B3000005050000EE
:1000B0000505000005050000050500000505000018
:1000C00000F002F800F0CBF812A030C8083824186D
:1000D0002D18AC4201D100F0C2F80FCCA246AB46BD
:1000E0000CA730CF2D1B083F3F197C427F1E544484
:1000F0002D090426F441641EAC4201D300F0AFF890
:100100000126334200D0FB1A3343984754465D46DC
:10011000DFE700008C2C0400AC2C0400103A02D362
:1001200078C878C1FAD8520701D330C830C101D598
:1001300004680C6070470000704700000023002432
:1001400000250026103A01D378C1FBD8520700D30E
:1001500030C100D50B60704710B56E2902D100F098
:1001600069FD10BD702902D100F0BFFE10BD6629E7
:1001700002D12CF01DF810BD652902D12CF018F821
:1001800010BD672902D12CF013F810BD612902D1EE
:100190002CF016F810BD03681B0A01D38023194305
:1001A000692902D100F010FD10BD642902D100F0D0
:1001B0000BFD10BD752902D100F006FD10BD6F29A1
:1001C00002D100F03DFE10BD782902D100F07AFE88
:1001D00010BDE92902D100F0D9FD10BDE42902D1FA
:1001E00000F0D4FD10BDF52902D100F0CFFD10BD07
:1001F000EF2902D100F030FE10BDF82902D100F045
:100200006FFE10BD0368DB0901D380231943632906
:1002100002D101F052FB10BD732902D101F055FB50
:1002200010BDE32902D101F05FFB10BDF32902D11B
:1002300001F062FB10BD002010BD1FB501F0BCFB3A
:100240000400002000212BF09DFF401C6060002076
:1002500000212BF081FFE0601FBD10B510BD01F043
:1002600084FB1146FFF7E9FF1CF0F2FD01F018FFD7
:1002700003B4FFF7F2FF03BC01F01EFF70B50546A3
:100280000C46164602E00FCC0FC5103E102EFAD2D7
:10029000082E02D303CC03C5083E042E07D301CC9D
:1002A00001C5361F03E021782970641C6D1C761E81
:1002B000F9D270BD8FB00990089107920020039089
:1002C00009A800784007002804D0FFE70020C043B9
:1002D0000A90E8E0002005907449272008600998FA
:1002E00073490860039810300390FFE700200290E4
:1002F000012004900899059A920089586D4A11606E
:10030000089A05998900891849686B4A1160089A0A
:100310000599890089188968684A1160089A0599C1
:1003200089008918C968664A11606649086005989D
:10033000001D059005980690FFE706983F2800D914
:100340009AE001200E900E9880F31088FFE75E4837
:100350000068C007002813D1FFE700200D900D9919
:1003600081F3108859490A680F218A4350490A606D
:100370000968099A891A89080591C0430290FFE724
:10038000FFE75148016800208906890F0029019084
:1003900005D0FFE70298414248410190FFE70198EC
:1003A000C0070028D3D1FFE7029800285AD1FFE701
:1003B00003980830039008980699890040583D49F1
:1003C0000860089906988000401840683A4908601B
:1003D000FFE73D480068C007002813D1FFE7002071
:1003E0000C900C9981F3108838490A680F218A43D0
:1003F0002F490A600968099A891A89080591C0433A
:100400000290FFE7FFE73048016800200906890FE6
:100410000029009005D0FFE7029841424841009032
:10042000FFE70098C0070028D3D1FFE70298002813
:1004300017D1FFE7039808300390089906988000C9
:10044000401880681D490860089906988000401887
:10045000C0681B49086000200B900B9880F310883F
:10046000FFE7FFE70298002801D5FFE704E0FFE778
:100470000698001D069060E7029800280BD1FFE760
:1004800000200490FFE712480068C007002801D050
:10049000FFE7F8E7FFE7FFE70498002800D025E72B
:1004A00003980A90FFE70A980FB070470CC000400D
:1004B00004C0004080C0004084C0004088C00040AC
:1004C0008CC0004010C00040C0C00040C4C000400C
:1004D00040C000400F4810490160104901601049B8
:1004E0000160104A10491160104A11491160002141
:1004F00001601048804710480047FEE7FEE7FEE72E
:10050000FEE7FEE7FEE700000C480D490D4A0E4BE2
:100510007047000000010040590000001600000074
:100520008800000024000040A55A0000800200401E
:1005300001000000C5C20000C10000007099002049
:1005400070A50020709D0020709D00200FB405490B
:1005500010B503AA029800F0A7FB10BC08BC04B0B9
:1005600018470000449000200FB41CB5084B06AAA1
:100570007B4469460090059800F075FB0446002016
:10058000694600F083FB20461CBC08BC04B0184739
:10059000190700000FB41CB50C0007AA009007D083
:1005A0004142A14202D30019401E01E00020C04395
:1005B000074B7B4469460190069800F054FB0021EC
:1005C000002C01D0009A11701CBC08BC04B0184764
:1005D000E1060000034610B50B439B070FD1042A28
:1005E0000DD308C810C9121FA342F8D018BA21BAF7
:1005F000884201D9012010BD0020C04310BD002A4F
:1006000003D0D30703D0521C07E0002010BD0378AD
:100610000C78401C491C1B1B07D103780C78401C2C
:10062000491C1B1B01D1921EF1D1184610BD0000C0
:10063000034670B502460B439B070FD10E4CE601F3
:1006400000E008C208C91D1B9D433542F9D0D9B24C
:100650001170521C00290DD01B0AF8E70B78491CB9
:100660001370521C002B05D00B78491C1370521CC0
:10067000002BF3D170BD00000101010130B5441C15
:1006800003E00178401C00290DD08107F9D10B4B04
:10069000DD0104C8D11A91432940FAD0001B0A0693
:1006A00003D0C01E30BD001B30BD0A0401D0801E27
:1006B00030BD0902FCD0401E30BD00000101010127
:1006C00010B5044600F002F8204610BDF8B5042A23
:1006D0002CD3830712D00B78491C0370401C521E88
:1006E00083070BD00B78491C0370401C521E8307F4
:1006F00004D00B78491C0370401C521E8B079B0FC3
:1007000005D0C91ADF002023DE1B08C90AE0FFF765
:10071000B5FDF8BD1D4608C9FD401C46B4402C433C
:1007200010C0121F042AF5D2F308C91A521EF0D4C1
:100730000B78491C0370401C521EEAD40B78491CEC
:100740000370401C012AE4D409780170F8BD431AF3
:1007500070B593421BD28918801804E0491E401ED0
:100760000B78521E03709307F8D106E01039103849
:1007700078C9103978C01038103A102AF6D203E040
:10078000091F001F0B680360121FF9D570BDFFF72A
:1007900075FD70BDF8B5064614460843800707D0BE
:1007A000751AA54219D20819102D13D2311907E074
:1007B0003046FFF7CCFFF8BD401E491E02780A7094
:1007C000641EF9D2F8BD471B2A463946FFF77EFF63
:1007D000641B3846A542F6D3011B22463046FFF77C
:1007E00075FFF8BD134610B50446CAB2194610028B
:1007F000821810048218204600F018F8204610BD18
:10080000D2B210B513029A1813049A1800F00EF819
:1008100010BD01E004C0091F0429FBD28B0701D5DC
:100820000280801CC90700D00270704700290BD0DD
:10083000C30702D00270401C491E022904D383075B
:1008400002D50280801C891EE3E70022EEE7002229
:10085000DFE7000082078B079A423FD170B5920F05
:100860000AD0032402780B78401C491C002A33D09C
:100870009A4231D12042F5D1214EF40104C808C971
:10088000951B9543254018D19A420FD104C808C939
:10089000951B9543254010D19A4207D104C808C939
:1008A000951B9543254008D19A42E7D012BA1BBA4E
:1008B00001209A4200D2404270BD12BA1BBA2DBA32
:1008C00018241000E0401900E140401A05D12E0024
:1008D000E64002D1083CF4D1D01A70BD02780B7802
:1008E000401C491C002A09D09A4207D102780B7893
:1008F000401C491C002A01D09A42EFD0D01A704700
:1009000001010101002203098B4273D3030A8B42C8
:1009100058D3030B8B423CD3030C8B4221D312E000
:1009200003460B437FD4002243088B4274D3030950
:100930008B425FD3030A8B4244D3030B8B4228D3F1
:10094000030C8B420DD30902FF2212BA030C8B4217
:1009500002D31212090265D0030B8B4219D300E0B7
:10096000090AC30B8B4201D3CB03C01A5241830B3C
:100970008B4201D38B03C01A5241430B8B4201D3EC
:100980004B03C01A5241030B8B4201D30B03C01A15
:100990005241C30A8B4201D3CB02C01A5241830A8F
:1009A0008B4201D38B02C01A5241430A8B4201D3BE
:1009B0004B02C01A5241030A8B4201D30B02C01AE8
:1009C0005241CDD2C3098B4201D3CB01C01A52414F
:1009D00083098B4201D38B01C01A524143098B42D8
:1009E00001D34B01C01A524103098B4201D30B01C1
:1009F000C01A5241C3088B4201D3CB00C01A5241E6
:100A000083088B4201D38B00C01A524143088B42AA
:100A100001D34B00C01A5241411A00D20146524143
:100A2000104670475DE0CA0F00D04942031000D362
:100A3000404253409C46002203098B422DD3030AB7
:100A40008B4212D38901FC2212BA030A8B420CD3C7
:100A5000890192118B4208D3890192118B4204D3F0
:100A600089013AD0921100E08909C3098B4201D370
:100A7000CB01C01A524183098B4201D38B01C01AAA
:100A8000524143098B4201D34B01C01A5241030921
:100A90008B4201D30B01C01A5241C3088B4201D3D0
:100AA000CB00C01A524183088B4201D38B00C01A7D
:100AB0005241D9D243088B4201D34B00C01A524154
:100AC000411A00D201465241104663465B1001D3E1
:100AD0004042002B00D54942704763465B1000D36B
:100AE000404201B50449002802DC491C084000E0EE
:100AF0000846C046C04602BDFFFFFF7F70477047F3
:100B0000704770B5044685690068C10601D5302676
:100B100000E02026C00707D070BD62683046A1689B
:100B20009047206A401C20626D1EF6D570BD70B5DE
:100B3000044685690078C00707D170BD6268A16866
:100B400020209047206A401C20626D1EF6D570BDA3
:100B500009684A0501D540B27047C905FCD500B205
:100B6000704709684A0501D5C0B27047C905FCD570
:100B700080B2704770B50C460546012A05D028782A
:100B8000800600D5EA69002302E0012305E05B1C32
:100B9000934202D2E05C0028F9D1A869E618C01A95
:100BA000A861286AC01828622846FFF7AAFF04E057
:100BB0006A682078A968641C9047B442F8D3284634
:100BC000FFF7B5FF70BD0000F7B500257529106867
:100BD000009914A611D0FFF7BBFF002802DA4042AB
:100BE00011A608E0009909688A0701D50FA602E05E
:100BF000490704D50EA6012501E0FFF7B2FF009FCB
:100C00000024243704E000F09CFE30313955641C88
:100C10000028F8D12B4632462146009800F073FA9E
:100C2000FEBD0000000000002D0000002B000000B1
:100C30002000000011680268006A530501D50870A1
:100C400009E0D30501D5088005E0130602D5C217D7
:100C500005C100E0086001207047000001694A1CDE
:100C600002610878704700B58FB0029100210591AC
:100C7000054901937944039111460490684600F0B8
:100C800041F90FB000BD0000E5FFFFFF0A681070DA
:100C9000521C0A6070470CC908399A4202D2531C90
:100CA0000B60107070470000084B70B50D467B4418
:100CB000FFF7D9FF044628461CF0BAF8002802D0F6
:100CC0000020C04370BD204670BD00008BC10100F4
:100CD000F7B50446154686B02B487844002703C86C
:100CE0003E460090019111E007986A467100415A12
:100CF00002A800F005FE411C07D02178890603D523
:100D0000E269391891420ED83F18761C2078800687
:100D100002D5E069B84206DDAE42E5DB0798710016
:100D2000405A0028E0D1A069C01BA0612046FFF70F
:100D3000E8FE154878445A3803C800900020019115
:100D400016E041006A460798415A02A800F0D8FD13
:100D50000590401C0AD0002505E0626802A8A16841
:100D6000405D90476D1C05988542F6D30498401C61
:100D7000B0420490E5DB206AC01920622046FFF7EC
:100D8000D6FE09B0F0BD00007A640300F7B5D21DAD
:100D90000025D20815A6D200F52905CA11D0002ACF
:100DA00005DA00214042914111A60A4608E0009967
:100DB00009688B0701D50FA602E0490701D50EA6E9
:100DC00001251146009F0024243704E000F05EF95D
:100DD00030323A55641C02460A43F7D12B4632465C
:100DE0002146009800F08FF9FEBD000000000000D1
:100DF0002D0000002B0000002000000070B504460C
:100E00000021243408E05507D2086D0F30356554B1
:100E10005D072A43DB08491C15461D43F3D10468CE
:100E2000002310A2250708D520252C400C4304D010
:100E3000C46901230CA2641EC46100F064F970BD92
:100E400010B5044621461068FFF78BFE00230246CA
:100E50002046FFF7D3FF10BDD21DD108C9000CC931
:100E6000CCE700000000000030000000F8B50F469D
:100E70000188090502D5224C7C4402E0204C7C44C8
:100E80000E3405460021243508E016071209360FF6
:100E9000A65D6E541E0732431B09491C16461E43AD
:100EA000F3D1224604780023240705D5702F06D0FD
:100EB000002901D00223113200F025F9F8BD0123E9
:100EC0001032F9E770B504460D4621461068FFF769
:100ED00048FE0023024629462046FFF7C7FF70BDA3
:100EE000D21DD308DB000CCBC0E730B4036820244C
:100EF0001268234303600823C36130BC0023B5E7B5
:100F0000E4620300F3B50446002081B0206220466D
:100F1000E1688847002872D0252802D06268A1685D
:100F2000ABE0594F00267F442046E16888472028DF
:100F3000054608DB312D06D27819203800780028C4
:100F400001D00643F0E7B00701D504208643002016
:100F5000E0610746A0612A2D0AD028462BF0F4F85C
:100F6000002827D0B8000019303D0090856119E0B5
:100F70000298BA00121902C8916102902046E168F5
:100F80008847012F054617D1E06900281FDA202085
:100F900086431CE000980A21806948430099401963
:100FA000303888612046E168884705462BF0CCF848
:100FB0000028EFD1012F0AD02E2D08D12046E1685C
:100FC00088470546202006437F1C022FC3DBA0690B
:100FD000002803DA4042A06101200643F00701D057
:100FE000102086436C2D0BD0682D09D04C2D3CD0A1
:100FF0006A2D38D0742D38D07A2D36D016E040E0E6
:10100000E1682F4620468847B842054609D16C2F33
:1010100029D001208002E168064320468847054622
:1010200004E06C2F1DD0FF2001300643002D28D096
:1010300028464138192803D80120C002064320352C
:10104000204626602946029A1646FFF785F80028B2
:1010500010D001280BD0F61DF008C0000830029017
:1010600055E74020E1E78020D5E70020D3E7361D93
:1010700002964CE762682846A1689047206A401CA7
:1010800044E7206AFEBD00005E6203000B4670B5B7
:10109000024689078008084319469D08141AA94189
:1010A00025090807054308092C194841250A0106A6
:1010B0000D43010A2C194141200C0D0428430D0C4D
:1010C00000194D41002140194D41C00869070843EE
:1010D000E908840F8D002543840024184D4124190C
:1010E0006D41121BAB4107E00925ED432C1152194C
:1010F00063410024401C61411C460A250026551B03
:10110000B441F1D270BDFFB504460D4681B0243024
:1011100000902168880604D51022E069914321607F
:1011200000E00120A84201DD471B00E000270498F1
:10113000A1697A191018081AA0612078C00602D493
:101140002046FFF7DEFC002608E003986268A168ED
:10115000805D9047206A401C761C2062049886427D
:10116000F3DB2078C0060AD52046FFF7CAFC06E06C
:101170006268A16830209047206A401C206238468F
:101180007F1E0028F4DC07E000986268A168405DDB
:101190009047206A401C206228466D1E0028F3DC20
:1011A0002046FFF7C4FC2078000602D5022005B0D7
:1011B000F0BD0120FBE70000FFB50C461E468FB0D6
:1011C00003CA089009914F007D0D00D16D1E0021CA
:1011D00008460020C0460321099A89050840002AD4
:1011E00003DA8200801840080840800D01280A9028
:1011F00002DD0020C0430A90089807430DD0F04854
:10120000F049281848430714189800281DD0754243
:10121000291E1DDD0A9842421BE01898012802D0C1
:101220000020302104E00020F24305E02154401C5E
:10123000B042FBDB30460022189B002121540F995D
:101240008B600A60486013B0F0BDBD1B6D1CDFE70A
:101250000A9A002900DA69420BA800F0F5FB0BABF3
:1012600007CB03AB07C30899099800F059FC6B46FC
:1012700007C30146D4480918002D00910BDDD2495F
:1012800003980A9A49424018002303A9039068462C
:1012900000F0B6FE08E003990A9A0023081803A993
:1012A0000390684600F056FE6B4607C30004000C2E
:1012B00003D00020C043410800E01046189A002ADD
:1012C00003D00022009215461EE0751E05D4FFF7DC
:1012D000DDFE303262556D1EF9D5012208430796B6
:1012E00002D000227F1C04E02078302801D10022A7
:1012F0007F1E002A069787D01EE0112D07DAFFF720
:10130000C5FE303262556D1C02460A43F5D10843D2
:1013100003D00098002819D00EE00021681E05E0D7
:10132000235C625C63542254401E491C8142F7DBFB
:10133000A81B401E07950690079A18990020A054F4
:101340000F98079B069A81600CC07CE7112600204D
:10135000189059E7D21DF0B50D460446D10893B058
:10136000C90003C90C900D912AF05CFE02460D984D
:10137000C00F01D02D2007E02068810701D52B2068
:1013800002E04007C00F4001032A0F9001D0072A56
:1013900005DB03462946204600F012FB0EE12078CB
:1013A000800601D5E76900E006272846652D04D0B0
:1013B000662814D0672D69D12DE00020112F0090F0
:1013C00001DB112300E07B1C0CAA03A910A8FFF786
:1013D000F3FE1199002610987D1C0E9142E0012029
:1013E0003B460CAAC0070B900120009003A910A84F
:1013F000FFF7E2FE119D12981099002600280E9525
:1014000001D1781C0D18781B02D446427D1C761E33
:10141000E81B00903AE0012F00DA01270020112F8D
:10142000009001DD112300E03B460CAA03A910A89F
:10143000FFF7C2FE11993D46109800260E912178C3
:1014400009070BD40E99A94200DA0D4603A9012D14
:1014500004DD4A19203AD27F302A06D0B84201DA98
:10146000011D04DA012100910FE06D1EEFE7002855
:1014700002DC86192D1A03E0411CA94200DD0D464D
:10148000801B401C00900120C0070B9020780007B3
:1014900005D40098A84202DB0020C04300906946B2
:1014A0000020C8720B98012102AF0337C907884298
:1014B00025D0022010902B2011900B9800280BDAD9
:1014C00040420B902D20119006E00B9800F039FA65
:1014D00030317F1E0B9039701099481E00291090F2
:1014E000F3DC0B980028F0D111987F1E387020880B
:1014F000000501D5452000E065207F1E387001A859
:10150000C01BC01D0B900F98002800D0012041196E
:101510000098C01709180B980818A169081A401EEE
:10152000A0612078C00602D42046FFF7EAFA0F989F
:10153000002805D06268A1689047206A401C20629C
:101540002078C00625D52046FFF7DBFA21E0002EE3
:1015500007DB0E98B04204DD03A86268805DA168D5
:1015600002E06268A16830209047206A761C401C27
:1015700020620098401E002800900AD100F01CFA5A
:10158000C06862680168405CA1689047206A401C9E
:10159000206228466D1E0028D9DC07E06268387892
:1015A000A1687F1C9047206A401C20620B99481E4E
:1015B00000290B90F2DC2046FFF7B9FA032042E63F
:1015C00001FCFFFF104D0000E1DFFFFFD21DF0B571
:1015D00004460D46D0088DB0C00046680768314605
:1015E00038462AF01FFD0246F00F01D02D2307E0F8
:1015F0002068810701D52B2302E04007C00F43017B
:101600006846002B037001D0012000E00020032A6F
:101610000A9001D0072A04DB2946204600F0D0F9C1
:101620002DE12078800601D40D2500E0E5697000E9
:10163000400D0D2D01904BDA300D00210B90084626
:101640000020C046032189050840002E05DA8200EB
:101650008018C20F1018401008408015012801DDC5
:101660000020C043A9000023182906D39C460A463F
:101670000123183A1B07D34003E001221205CA4098
:1016800094460C31202902D33A46203900E03246F4
:101690008A40002802DD002A06D119E0002817D16F
:1016A0000121C9078A4213D3194663467F185E4158
:1016B000002806D10120C007824202D10846874394
:1016C0009E430B98310D814202D00198401C01903D
:1016D0002088000502D57149794402E06F497944B8
:1016E00019396B460A9830221A540A980A7C401C11
:1016F0001A54401C0A900198002801DC302000E0B8
:1017000031201872019A0120002A02D0644BD218AD
:1017100004E072003A4302D0614A521C0192002D4B
:1017200002DC2278120703D56A462E20507202206E
:101730000022864694460CE032033601120F6D1EDD
:101740008B5C02AA13546246521C401C9446052A24
:1017500001DA002DF0DC002202AE08E03B0F3F0171
:10176000CB5C521C6D1E3354401C082A01DA002D3C
:10177000F4DC23689A0601D511E0401E704504DDB3
:101780003218203AD27F302AF7D0002807DD3218ED
:10179000203AD27F2E2A02D11A0700D4401E002DF3
:1017A00003DD3E223254401C6D1E497C31540199A8
:1017B000401C002906DA2D21471C31540198404273
:1017C000019003E02B21471C315401987D21C90071
:1017D000884206DBFFF7A4F83030F0557F1C0191FA
:1017E00001E0642808DB01986421FFF799F83030A4
:1017F000F0557F1C019101E00A2806DB01980A21BF
:10180000FFF78EF83030F0557F1C01980A21FFF762
:1018100087F83031F1550A98A1697F1C7A191018A0
:10182000081AA0612078C00602D42046FFF769F9A3
:10183000216A6E460A980818206204E062683078CF
:10184000A168761C90470A98401E0A90401CF5D16A
:101850002078C00602D52046FFF753F902AE09E012
:101860003078761C3E280DD06268A1689047206AC7
:10187000401C20627F1EF3D22046FFF758F90DB0BE
:101880000320F0BD206A4019206203E06268A1686D
:10189000302090476D1EEDD3F8E70000D05A0300CA
:1018A00001FCFFFF10B54369002B02D0C046C046C3
:1018B00001E0FFF75FF9012010BD127801462431E5
:1018C0000A7000224A700122ECE711680022D2431C
:1018D000E8E710B54369002B02D0C046C04601E0DE
:1018E000FFF7F6F9012010BD1288014624318284E9
:1018F0000022C2840122ECE711680022D243E8E70B
:10190000F8B516460C46054600F04EF80368FF2071
:101910000230C05C012807D0FF2C0FD8185D0028CA
:101920000CD001202C70F8BDFF333246214608331D
:101930001868C71828460023B847F8BD0020C043E0
:10194000F8BD01468008081A02091018020A10188A
:10195000020C1018C008820012185200891A01E007
:10196000401C0A390A29FBD27047754600F0A0FBDB
:10197000AE46050069465346C008C000854618B00B
:1019800020B5FEF7C1FD60BCB64600260027C0C5E5
:10199000C0C5C0C5C0C5C0C5C0C5C0C5C0C5403D27
:1019A000490849008D46704710B500F005F8001D44
:1019B00010BD00BFD1A7020000487047F009002009
:1019C000F8B51F46044601230068DB0203260146E2
:1019D0001840072A05DB002801D017A506E017A547
:1019E00004E0002801D016A500E016A510208143D0
:1019F0002160A069C01E002FA06101D0401EA0611F
:101A00002046FFF77EF8002F09D038466268A168AB
:101A10009047206A401C2062C01C206206E0206AB9
:101A2000FAE762682878A1686D1C9047761EF8D2A4
:101A30002046FFF77CF8F8BD4E414E006E616E0007
:101A4000494E4600696E6600F7B516468AB03348BF
:101A500078446C4603467C33C06F5A689B680DC45B
:101A60002E487844763003AC0DC80DC43720C00131
:101A7000081837211B30FEF753FF05460C46803D02
:101A80001B3C02D56442012000E0002000270990A1
:101A900010E0E0070CD00C2020497843794432460E
:101AA0004C3941186846012300F054FA6B4607C3CD
:101AB00064107F1C002CECD1184F7F442E3F16E0A1
:101AC000E80712D02001C0190EC8069108930792AA
:101AD0000068F04201D1981908903246012306A906
:101AE00003A800F037FA03AB07C36D10641C002D88
:101AF000E6D10998002806D032466946012303A89A
:101B000000F07EFA05E001233246694603A800F0A2
:101B100021FA0A9B07C30DB0F0BD00006C5703000B
:101B2000034640000A4610B5400D0BD00121C907FD
:101B30000F24A40200191C0364082143540D2143FF
:101B4000D20207E000210120F2E7D40F490021432F
:101B50005200401E0029F8DADB0FDB07184310BDE6
:101B6000FFB50D46144685B0486851682AF042FA20
:101B700000910190A868A1682AF03CFA02910390B4
:101B8000A86861682AF036FA029A12188242029214
:101B900001D2012000E00020019A0B18D218002881
:101BA000019202D08A4202D903E08A4201D2012086
:101BB00000E000200099081800906868A1682AF0E9
:101BC00019FA029A12188242029201D2012000E010
:101BD0000020019A0B18D2180028019202D08A42E4
:101BE00002D903E08A4201D2012000E000200099DE
:101BF00008180090286821684000490040084908FA
:101C00004018FA49471814E001994000C90F0843E9
:101C10000090019802994000C90F08430190029872
:101C200003994000C90F08430290039840007F1EAB
:101C3000039000980028E7DA0898002801D0EC4EBD
:101C400000E00026B74201DA012000E00020002871
:101C500004902AD0F71BF806C00E15D0029B202155
:101C6000091A039A8B401A430392029A019BC240BD
:101C70008B401A430292019A009BC2408B4000990C
:101C80001A430192C14000917B110DD06F46032091
:101C9000C11A03D500218200B95003E08A008100F7
:101CA000BA587A50401EF3D5374603980299002857
:101CB00000D00120014308980291002808460CD06A
:101CC000002800D001200199019A4905084301210B
:101CD000D20AC902D202019200E001210E9B012228
:101CE000D207012B02D0002B03D013E0002807D12C
:101CF00020E0904204D890420CD1019B0B4209D0C5
:101D0000019B5918019105D10099491C009101D1FD
:101D10007F1C009200280DD0102108460020C046EC
:101D20000498002806D00F98002803D00821084600
:101D30000020C04628682168019B009A4840C10FD6
:101D40000598C90739430EC009B0F0BDFFB587B08B
:101D5000099A089808995368926840688968964675
:101D60000022039317469446089A12685300099A72
:101D70005B081268520052089A1A9E4BD4180A9AAD
:101D8000002A01D0352200E04022069200220123E1
:101D900015460492DB07059324E0002D05D1754616
:101DA0000346039E4D1BB34109D375466646039B0C
:101DB000491B049D9841059B7519AC465F416346DC
:101DC0003B4308D0059B049EDD0776082E435B0845
:101DD0000496059301E0521E641EC50FED074918D5
:101DE0004041521C069B9A42D7DB002D04D1754618
:101DF000039A6B1A824101D203200CE0039A0B462E
:101E00006B404240134303D0014303D0012002E062
:101E1000022000E00020614601910021009702911C
:101E20000A99002905D0614640020143704B019197
:101E300002E08007002302909C4201DA012000E0CA
:101E4000002007003AD01A1BD006C00E15D0029D04
:101E50002021019C091AC5408C402543029C8C40DE
:101E600000D001242543019C0295009DC4408D4073
:101E700000992C430194C140009154111DD06D462E
:101E80000221002202290CD10320001B07E00028B8
:101E900004DB8600AE59002E00D00122401C03282E
:101EA000F5DB081B02D588002A5004E08000285882
:101EB00010438A00A850491EE3D51C460A98002802
:101EC00002980CD0002800D001200199019A490500
:101ED00008430121D20AC902D202019200E0012185
:101EE000109B0122D207012B02D0002B03D013E05C
:101EF000002807D11FE0904204D890420CD1019BEA
:101F00000B4209D0019B5918019105D10099491C38
:101F1000009101D1641C009200280CD010210846C9
:101F20000020C046002F06D01198002803D00821B9
:101F300008460020C04608980999019A009B00684D
:101F400009684840C10F0798C907214382600AC049
:101F50000BB0F0BD00B585B0019300920A46014672
:101F6000002302A8FFF7FCFD02A807C805B000BDCA
:101F7000FFB50A461F4685B00799019301230091DA
:101F8000014602A8FFF7ECFD02990398049ECA0FD0
:101F90004900D20700920F22490892028C1A0021B0
:101FA000002800DB0C46450013486D08844214D31A
:101FB000079A002A04DA441E0026104DF64302E078
:101FC00004460D460E46102108460020C046002F4C
:101FD00003D0042108460020C0462005E90A084332
:101FE000009908436905F20A1143ADE602C0FFFFFC
:101FF000013C0000FF3F0000FF070000FFFFFF7FE4
:1020000000B585B0019300920A460146002302A85C
:10201000FFF79CFE02A807C8A8E7FFB50A461F46BF
:1020200085B00799019301230091014602A8FFF7AB
:102030008DFE02990398049ECA0F4900D2070092B0
:102040000F22490892028C1A0021002800DB0C465E
:10205000450011486D08844214D3079A002A04DA17
:10206000441E00260D4DF64302E004460D460E4682
:10207000102108460020C046002F03D00421084646
:102080000020C0462005E90A084300990843690575
:10209000F20A114358E60000FF070000FFFFFF7F30
:1020A00010B50446C046C0462046FEF7E1F810BD14
:1020B00000487047D009002001491820ABBEFEE758
:1020C000260002007047000080B5C0B03F903EA8D7
:1020D00001703DA80270FE480078002800D020E181
:1020E00008F014FA3DA80078002801D1FFE704E1C8
:1020F0003DA8007801280AD1FFE7F6495020087072
:1021000061204870672088706520C870F4E03DA8A1
:102110000078022810D1FFE7EE49502008706120B6
:102120004870672088706520C8702020087155208D
:10213000487170208871DEE03DA80078032815D131
:10214000FFE7E4493C915020087061204870672007
:1021500088706520C87020200871442048716F2065
:1021600088717720C8716E200872C3E03DA800789E
:10217000042810D1FFE7D749422008706120487039
:10218000722088706320C8706F20087164204871C5
:1021900065208871ADE03DA8007805280FD1FFE7E4
:1021A000CC49432008706F2048706D2088706622EB
:1021B000CA7069220A7172224A71887198E03DA83A
:1021C000007806280CD1FFE7C249452008706E2030
:1021D0004870742088706520C8707220087186E08D
:1021E0003DA8007807280DD1FFE7BA4953200870B1
:1021F000652048706C228A70C87063200871742052
:10220000487173E03DA8007808280AD1FFE7B1497A
:102210004220087061204870632088706B20C8706D
:1022200063E03DA8007809280AD1FFE7A9494E20BC
:10223000087065204870782088707420C87053E05A
:102240003DA800780A280AD1FFE7A2495320087068
:1022500074204870652088707020C87043E03DA8E5
:1022600000780B2811D1FFE79A493B915320087061
:102270006520487071228A707522CA7008716E22BA
:102280004A7163228A71C8712CE03DA800780C283D
:102290000CD1FFE78F49432008706C2048706520FF
:1022A00088706120C870722008711AE03DA800781B
:1022B0000D2814D1FFE787493A9153200870652013
:1022C000487071228A702022CA7043220A716C22DF
:1022D0004A7188716120C8717220087200E0FFE7BE
:1022E000FFE7FFE7FFE7FFE7FFE7FFE7FFE7FFE7BE
:1022F000FFE7FFE7FFE7FFE7FFE73EA83890017839
:102300007548C43039908900405874491BF0BAFCB4
:10231000389939980978890040586E491BF0C3FCF8
:1023200025E36B480078012800D096E108F0EEF82C
:102330003DA80078002814D1FFE73EA83690017828
:102340006548C43037908900405864491BF09AFCB6
:102350003699379809788900405861491BF0A3FCE9
:102360007AE13DA80078012815D1FFE73EA8349016
:1023700001785948C43035908900405859491BF0BC
:1023800081FC349935980978890040585649096884
:102390001BF089FC5FE13DA80078022815D1FFE71A
:1023A0003EA8329001784C48C430339089004058A0
:1023B0004C491BF067FC32993398097889004058E2
:1023C0004A4909681BF06FFC44E13DA800780328E6
:1023D00015D1FFE73EA8309001783F48C4303190D6
:1023E000890040583F491BF04DFC309931980978DD
:1023F000890040583E4909681BF055FC29E13DA879
:102400000078042815D1FFE73EA82E9001783248C5
:10241000C4302F908900405832491BF033FC2E996C
:102420002F98097889004058324909681BF03BFC15
:102430000EE13DA80078052815D1FFE73EA82C90B5
:1024400001782548C4302D908900405825491BF05B
:1024500019FC2C992D98097889004058264909685B
:102460001BF021FCF3E03DA80078062815D1FFE71A
:102470003EA82A9001781848C4302B908900405813
:1024800018491BF0FFFB2A992B98097889004058BE
:102490001A4909681BF007FCD8E03DA80078072816
:1024A00030D1FFE73EA8289001780B48C43029902E
:1024B000890040580B491BF0E5FB289929980978B9
:1024C000890040580E4909681BF0EDFBBDE0C0468D
:1024D00089910020448A0020B090002020E1020071
:1024E0002F1A040094890300780600208806002033
:1024F0007C060020480400207804002010050020FD
:10250000CC0600203DA80078082815D1FFE73EA89A
:1025100026900178FC48C430279089004058FB4938
:102520001BF0B0FB26992798097889004058F84994
:1025300009681BF0B8FB87E03DA80078092815D191
:10254000FFE73EA824900178EF48C4302590890029
:102550004058EE491BF096FB24992598097889008C
:102560004058EC4909681BF09EFB6CE03DA80078E0
:102570000A2815D1FFE73EA822900178E248C4302E
:10258000239089004058E1491BF07CFB2299239855
:10259000097889004058F74909681BF084FB51E02D
:1025A0003DA800780B2815D1FFE73EA820900178C0
:1025B000F348C430219089004058F2491BF062FB77
:1025C00020992198097889004058EB4909681BF047
:1025D0006AFB36E03DA800780C2815D1FFE73EA83D
:1025E0001E900178E648C4301F9089004058E549A4
:1025F0001BF048FB1E991F98097889004058F24942
:1026000009681BF050FB1BE03DA800780D2815D190
:10261000FFE73EA81C900178D948C4301D9089007E
:102620004058D8491BF02EFB1C991D980978890049
:102630004058E44909681BF036FB00E0FFE7FFE77C
:10264000FFE7FFE7FFE7FFE7FFE7FFE7FFE7FFE75A
:10265000FFE7FFE7FFE7FFE788E1C84800780228C7
:1026600000D082E13DA80078002814D1FFE73EA801
:102670001A900178C248C4301B9089004058CF4955
:102680001BF000FB1A991B98097889004058CC4927
:102690001BF009FB68E13DA80078012815D1FFE790
:1026A0003EA818900178B648C43019908900405867
:1026B000B4491BF0E7FA189919980978890040582D
:1026C000BD4909681BF0EFFA4DE13DA800780228EA
:1026D00015D1FFE73EA816900178A948C43017909D
:1026E00089004058A7491BF0CDFA16991798097828
:1026F00089004058AF4909681BF0D5FA32E13DA87E
:102700000078032815D1FFE73EA8149001789C4873
:10271000C4301590890040589A491BF0B3FA1499B7
:102720001598097889004058A14909681BF0BBFA3F
:1027300017E13DA80078042815D1FFE73EA81290C4
:1027400001788F48C4301390890040588D491BF0A0
:1027500099FA1299139809788900405893490968A1
:102760001BF0A1FAFCE03DA80078052815D1FFE791
:102770003EA8109001788248C430119089004058DA
:1027800080491BF07FFA1099119809788900405808
:10279000854909681BF087FAE1E03DA80078062822
:1027A00015D1FFE73EA80E9001787548C4300F9010
:1027B0008900405873491BF065FA0E990F98097803
:1027C00089004058774909681BF06DFAC6E03DA8BA
:1027D0000078072815D1FFE73EA80C9001786848DB
:1027E000C4300D908900405866491BF04BFA0C9993
:1027F0000D98097889004058694909681BF053FA17
:10280000ABE03DA80078082815D1FFE73EA80A9064
:1028100001785B48C4300B908900405859491BF03F
:1028200031FA0A990B980978890040585B49096880
:102830001BF039FA90E03DA80078092815D1FFE790
:102840003EA8089001784E48C4300990890040584D
:102850004C491BF017FA08990998097889004058E3
:102860004D4909681BF01FFA75E03DA800780A2859
:1028700015D1FFE73EA8069001784148C430079083
:10288000890040583F491BF0FDF9069907980978DF
:10289000890040583F4909681BF005FA5AE03DA8F5
:1028A00000780B2815D1FFE73EA804900178344842
:1028B000C43005908900405832491BF0E3F904996F
:1028C0000598097889004058314909681BF0EBF9EF
:1028D0003FE03DA800780C281ED1FFE73EA80290FB
:1028E00001782748C43003908900405825491BF0DF
:1028F000C9F9029903980978890040582349096861
:102900001BF0D1F924E0C046B09000209489030068
:1029100040040020340600203DA800780D2815D181
:10292000FFE73EA8009001781548C4300190890067
:10293000405814491BF0A6F90099019809788900BC
:102940004058114909681BF0AEF900E0FFE7FFE7C6
:10295000FFE7FFE7FFE7FFE7FFE7FFE7FFE7FFE747
:10296000FFE7FFE7FFE7FFE7FFE7FFE7FFE740B02D
:1029700080BDC04638070020040700208991002050
:10298000B090002094890300E00600207404002029
:1029900008070020440700203806002044040020D7
:1029A000D0060020140500207C0400204C040020E8
:1029B000800600208C0600208406002020E1020012
:1029C0002F1A0400DC0600207004002080B50E4899
:1029D00000680721084002280ED1FFE7A1490868D6
:1029E000042210430860102000F0A4FB0649086888
:1029F000072210430860FFE7D1490868012212044A
:102A00001043086080BDC0461002004084B00390AF
:102A100008200290042001900020009003981F22BB
:102A20000146114001238B40800F810068464158C8
:102A3000024A88581843885004B070470402004086
:102A400080B592B010900F91FFF7C0FF109800284A
:102A50000ED1FFE7834A116801200143116000F0A5
:102A600069FB00200A90DB480E9002200D900FE0D9
:102A70007C490868042210430860102000F05AFBCB
:102A80000120C0040A90D4480E9002200D90FFE768
:102A90000120800700680F2109020840000A06286B
:102AA0000AD0FFE70120800700680F2109020840D3
:102AB000000A012803D1FFE75B48029002E0594871
:102AC0000290FFE70F98029988421AD8FFE70F9803
:102AD0005649884215D3FFE70F985249884208D8D3
:102AE000FFE704200B90032009900F9880000F90BF
:102AF00006E002200B9009900F9840000F90FFE72E
:102B000000E078E00020C143059103900490FFE7C6
:102B10000D98212853D8FFE70E980D991AF09CFDC7
:102B2000089008984549884244D3FFE708984449EB
:102B300088423FD8FFE702200C90FFE70C984149FC
:102B4000884236D8FFE708990C98484307900798C1
:102B50003D49884228D3FFE707983C49884223D85B
:102B6000FFE707980F99884205D9FFE707980F9963
:102B7000401A019004E00F980799401A0190FFE76E
:102B8000019806900698059988420CD2FFE70698AE
:102B900005900D9803900C9804900598002801D199
:102BA000FFE706E0FFE7FFE7FFE70C98401C0C900B
:102BB000C4E7FFE7FFE70D98401C0D90A8E70A98CF
:102BC000099989030843039949021B4A8918084354
:102BD0000499891E0843A6490860042000F0AAFA57
:102BE0000E980B9A039951431AF036FD014604984A
:102BF0004843119012E01098002804D1FFE79C4947
:102C00000C48086003E09A4909480860FFE704207F
:102C100000F090FA00F096F81190FFE7119812B0CA
:102C200080BDC04600D8B80500449508C0320A03EC
:102C30005EC208005ECC000000FCFFFF016A1800C5
:102C4000FF23F4000102000000C2EB0BFF64CD1D66
:102C500081B00090009ADE4908681043086001B016
:102C60007047C0460002004080B582B009F0EAFA21
:102C70000D4800680721084001900C480068019940
:102C8000C84002B080BDC04680B582B009F0DAFA13
:102C90000548006870210840000901900348006859
:102CA0000199C84002B080BD34020040780700207E
:102CB00080B588B06D480290002007906C4800688D
:102CC000019001A880780521084235D1FFE701A8CD
:102CD00080780007002803D5FFE76748069002E0E8
:102CE00064480690FFE701A880788007002803D594
:102CF000FFE7069807901EE001A80088810B02A854
:102D000040180078039001985C490840801C0590A9
:102D100001981F2149020840400A801C049006982F
:102D2000810805984843049A039951431AF094FC8A
:102D300080000790FFE7FFE7079808B080BDC04616
:102D40004002004080B588B04848029000200790BB
:102D500047480068019001A880780521084235D1D4
:102D6000FFE701A880780007002803D5FFE7424865
:102D7000069002E03F480690FFE701A880788007B0
:102D8000002803D5FFE7069807901EE001A80088F9
:102D9000810B02A840180078039001983749084039
:102DA000801C059001981F2149020840400A801CA0
:102DB00004900698810805984843049A0399514362
:102DC0001AF04AFC80000790FFE7FFE7079808B079
:102DD00080BDC0460048E801001BB70080B588B040
:102DE000224802900020079021480068019001A825
:102DF00080780521084235D1FFE701A880780007D7
:102E0000002803D5FFE71C48069002E01948069009
:102E1000FFE701A880788007002803D5FFE7069820
:102E200007901EE001A80088810B02A840180078D6
:102E30000390019811490840801C059001981F21BA
:102E400049020840400A801C0490069881080598B1
:102E50004843049A039951431AF0FEFB80000790FF
:102E6000FFE7FFE7079808B080BDC04601020204F3
:102E7000400200400048E801001BB700FF010000CD
:102E800080B584B00390BA480068102108400290D1
:102E90000120800700680F2109020840000A062867
:102EA0000AD0FFE70120800700680F2109020840CF
:102EB000000A012803D1FFE72A48019002E02848D0
:102EC0000190FFE703980199884203D9FFE7019831
:102ED0000390FFE703982449884203D8FFE723487B
:102EE0000390FFE73A490868042210430860102065
:102EF00000F020F9604908680722104308605D4926
:102F000008680F229043086099480068C0070028AD
:102F100007D0FFE7039841000020FFF791FD0390E1
:102F20000CE0039841000120C004FFF789FD0390E5
:102F30008F480068102108400290FFE7022001211D
:102F400000F016F80298002806D1FFE7204908682B
:102F5000042290430860FFE70398400804B080BD56
:102F6000006CDC0200A24A045F198501601985012A
:102F700010B584B0039002917D4801681020014093
:102F80000191134A116804231943116000F0D2F82B
:102F900039490868072210430860364B18680F2427
:102FA000A043029C2043186008689043039A104392
:102FB000086009F047F90198002806D1FFE70449A5
:102FC0000868042290430860FFE704B010BDC046C3
:102FD000000200408DB00C900B910A9200200990E5
:102FE00008900C2107910821069104210591049075
:102FF000102103910290019000900C98800A000625
:10300000002817D0FFE70CA841880C200140684633
:103010004058184940180890089800680C9A910A7E
:10302000C9B29205D20E914088430A990843089983
:103030000860FFE70C980001400F002817D0FFE759
:103040000C98810E0C20014004A840580A494018F1
:103050000990099800680C9A1101490FD201D20E0B
:10306000914088430B99084309990860FFE70DB028
:103070007047C046200200401002004081B000901E
:1030800000992848006848432749086027490020DC
:103090000860274905200860FFE725480068C0034D
:1030A000002801D4FFE7F8E721490020086001B0BB
:1030B0007047C04681B0009000991A4800684843A4
:1030C000194908601949002008601949052008605D
:1030D000FFE717480068C003002801D4FFE7F8E7BE
:1030E00013490020086001B07047C04681B00090CD
:1030F00000990C48006848430B4908600B490020C0
:1031000008600B4905200860FFE709480068C00314
:10311000002801D4FFE7F8E705490020086001B066
:103120007047C0469004002014E000E018E000E082
:1031300010E000E083B001900C480090FFE70C48DD
:1031400000680199084088420AD0FFE70098411EB4
:103150000091002803DCFFE70020029003E0EEE787
:1031600001200290FFE7029803B0704780F520002D
:103170005002004080B584B022F0E4FD03465020A8
:103180000190002000900448044A1F211DF0E6F839
:103190000390039804B080BDC4CE0300BDA6010017
:1031A00080B584B022F0CEFD03465020019000206F
:1031B00000900448044A1F211DF0D0F803900398A2
:1031C00004B080BD28D2030065B4010080B584B08E
:1031D00022F0B8FD034650200190002000900448E2
:1031E000044A1F211DF0BAF80390039804B080BD73
:1031F0008CD503007DBD010080B584B022F0A2FD16
:10320000034650200190002000900448044A0A21FF
:103210001DF0A4F80390039804B080BD449A030005
:10322000A5EA000080B584B022F08CFD0346502052
:103230000190002000900448044A0A211DF08EF8F5
:103240000390039804B080BD5C9B03008DEF0000E9
:1032500080B584B022F076FD034650200190002016
:1032600000900448044A0A211DF078F8039003985E
:1032700004B080BD749C0300F1F2000080B584B0FE
:1032800022F060FD03465020019000200090044889
:10329000044A11211DF062F80390039804B080BD28
:1032A0008C9D0300B9F7000080B584B022F04AFD80
:1032B000034650200190002000900448044A112148
:1032C0001DF04CF80390039804B080BD689F030084
:1032D00095FF000080B584B022F034FD03465020F5
:1032E0000190002000900448044A11211DF036F896
:1032F0000390039804B080BD44A103004104010081
:1033000080B584B022F01EFD0346502001900020BD
:1033100000900448044A15211DF020F803900398FA
:1033200004B080BDA4AC0300AD2F010080B584B013
:1033300022F008FD03465020019000200090044830
:10334000044A15211DF00AF80390039804B080BDCB
:10335000F0AE03000139010080B584B022F0F2FC28
:10336000034650200190002000900448044A152193
:103370001CF0F4FF0390039804B080BD3CB103003F
:103380007D3E010080B584B022F0DCFC0346502075
:103390000190002000900448044A11211CF0DEFF37
:1033A0000390039804B080BD10A70300651B0100C3
:1033B00080B584B022F0C6FC034650200190002066
:1033C00000900448044A11211CF0C8FF03900398A0
:1033D00004B080BDECA803003123010080B584B0A7
:1033E00022F0B0FC034650200190002000900448D9
:1033F000044A11211CF0B2FF0390039804B080BD71
:10340000C8AA0300E127010080B584B022F09AFC2D
:10341000034650200190002000900448044A1921DE
:103420001CF09CFF0390039804B080BD88B3030098
:10343000E147010080B584B022F084FC03465020AF
:103440000190002000900448044A19211CF086FFD6
:103450000390039804B080BD44B60300915201006C
:1034600080B584B022F06EFC03465020019000200D
:1034700000900448044A19211CF070FF039003983F
:1034800004B080BD00B90300AD58010080B584B020
:1034900022F058FC03465020019000200090044880
:1034A000044A0C211CF05AFF0390039804B080BD1D
:1034B00020A303001D0C010080B584B022F042FC63
:1034C000034650200190002000900448044A0C213B
:1034D0001CF044FF0390039804B080BD70A4030067
:1034E000ED11010080B584B022F02CFC0346502081
:1034F0000190002000900448044A0C211CF02EFF8B
:103500000390039804B080BDC0A503009D15010081
:1035100080B584B022F016FC0346502001900020B4
:1035200000900448044A13211CF018FF03900398EC
:1035300004B080BDBCBB03005D63010080B584B0F6
:1035400022F000FC03465020019000200090044827
:10355000044A13211CF002FF0390039804B080BDBD
:10356000D0BD0300056C010080B584B022F0EAFBF9
:10357000034650200190002000900448044A132183
:103580001CF0ECFE0390039804B080BDE4BF030080
:103590002171010080B584B022F0D4FB0346502095
:1035A0000190002000900448044A08211CF0D6FE37
:1035B0000390039804B080BDF8C10300BD790100F9
:1035C00080B584B022F0BEFB03465020019000205D
:1035D00000900448044A08211CF0C0FE03900398A0
:1035E00004B080BDD8C20300D97D010080B584B08D
:1035F00022F0A8FB034650200190002000900448D0
:10360000044A08211CF0AAFE0390039804B080BD70
:10361000B8C30300C980010080B584B022F092FBDA
:10362000034650200190002000900448044A1F21C6
:103630001CF094FE0390039804B080BD98C403006E
:10364000E984010080B584B022F07CFB0346502061
:103650000190002000900448044A1F211CF07EFEC7
:103660000390039804B080BDFCC7030025920100BD
:1036700080B584B022F066FB034650200190002004
:1036800000900448044A1F211CF068FE0390039830
:1036900004B080BD60CB03008199010080B584B087
:1036A00022F050FB03465020019000200090044877
:1036B000044A0B211CF052FE0390039804B080BD15
:1036C000A8960300CDDB000080B584B022F03AFB61
:1036D000034650200190002000900448044A0B212A
:1036E0001CF03CFE0390039804B080BDDC970300FF
:1036F00045E1000080B584B022F024FB0346502051
:103700000190002000900448044A0B211CF026FE82
:103710000390039804B080BD1099030029E50000D0
:1037200081B0FFE70B48017801200029009008D103
:10373000FFE709480068012149040840400C009057
:10374000FFE70098C007002801D0FFE7EAE701B0D3
:103750007047C0465C99002064000D40B0B590B041
:103760000FAA10700EA80170454A08A938CA38C1BE
:1037700038CA38C18D49079100214056002806D526
:10378000FFE700210EA840564042039004E00021CC
:103790000EA840560390FFE70398069000210EA85C
:1037A0004056002835D0FFE7002005900698642891
:1037B00007DBFFE706987F2803DCFFE70220059080
:1037C00017E006980A2807DBFFE70698632803DC62
:1037D000FFE7012005900BE00698012807DBFFE7D3
:1037E0000698092803DCFFE700200590FFE7FFE7C4
:1037F000FFE700210EA84056002804D5FFE70598F2
:10380000C01C0590FFE7079805998A0008A9885011
:10381000FFE700200490FFE7049805282BDCFFE772
:103820000FA80078810062484018406804998A0017
:1038300008A9895821F0E7FC0498052812D1FFE770
:103840000FA8019001785A48001D02908900405845
:1038500022F03CFC0199029809788900405822F036
:1038600081FFFFE70F98401C0FA90870FFE704983D
:10387000401C0490D0E70FA8007810B0B0BDC0463F
:1038800054720300B0B590B00FAA10700EA801706A
:10389000454A08A938CA38C138CA38C143490791CE
:1038A00000214056002806D5FFE700210EA840560B
:1038B0004042039004E000210EA840560390FFE729
:1038C0000398069000210EA84056002835D0FFE747
:1038D000002005900698642807DBFFE706987F28FC
:1038E00003DCFFE70220059017E006980A2807DBB3
:1038F000FFE70698632803DCFFE7012005900BE053
:103900000698012807DBFFE70698092803DCFFE794
:1039100000200590FFE7FFE7FFE700210EA84056D3
:10392000002804D5FFE70598C01C0590FFE707981D
:1039300005998A0008A98850FFE700200490FFE756
:10394000049805282BDCFFE70FA8007881001848B1
:103950004018406804998A0008A9895821F053FC4E
:103960000498052812D1FFE70FA8019001781048AC
:10397000001D02908900405822F0A8FB019902988E
:1039800009788900405822F0EDFEFFE70F98401CAF
:103990000FA90870FFE70498401C0490D0E70FA817
:1039A000007810B0B0BDC0466C72030090230400D4
:1039B000B0900020374908680122904308607047A2
:1039C00080B582B001900020009001980121490546
:1039D000884204D1FFE700F02BF80090FFE7009841
:1039E000002821D1FFE74549222008600198444979
:1039F0000860454901200860FFE743480068C007A8
:103A0000002801D0FFE7F8E72248006840060028B8
:103A100009D5FFE71F4908684022104308600020CD
:103A2000C0430090FFE7FFE7009802B080BDC046AA
:103A300081B000200090314922200860012041051A
:103A40002F4A11602F4A0F4911602F490860FFE784
:103A50002D480068C007002801D0FFE7F8E70D48AF
:103A600000684006002809D5FFE70A490868402297
:103A7000104308600020C0430090FFE7009801B0A9
:103A80007047C04603AA5500024908680122104346
:103A90000860704700C0004081B0009017490020C6
:103AA0000860009816490860174901200860FFE780
:103AB00015480068C007002801D0FFE7F8E7114863
:103AC000006801B07047C04682B0019000910B4978
:103AD0002120086001980A49086000980949086097
:103AE000094901200860FFE707480068C00700286F
:103AF00001D0FFE7F8E702B07047C0460CC00040B5
:103B000004C0004008C0004010C0004080B588B02C
:103B1000F1480078F1490978884205D1FFE7F0487B
:103B20000078012800D012E3ED48007801280ED17A
:103B3000FFE7EC48017806A80170007809F080FCE6
:103B4000E948FFF7B7FAE6490020087045E0E24887
:103B500000780A2805D1FFE7E04800780B2832D02A
:103B6000FFE7DD4800780B2805D1FFE7DB48007848
:103B70000A2828D0FFE7D8480078142805D1FFE7A5
:103B8000D648007815281ED0FFE7D34800781528BE
:103B900005D1FFE7D1480078142814D0FFE7CE48BC
:103BA00000781E2805D1FFE7CC4800781F280AD0EE
:103BB000FFE7C94800781F280DD1FFE7C748007804
:103BC0001E2808D1FFE7C4480078C4490870EE49B0
:103BD00001200870CAE2FFE7FFE7EC48006821F027
:103BE00019FFC0480078002800D0D6E0BA48007815
:103BF0000490462800D9CAE00498810001A04058EA
:103C00008746C046213D00008F3D00008F3D0000EB
:103C10008F3D00008F3D00008F3D00008F3D000074
:103C20008F3D00008F3D00008F3D00002B3D0000C8
:103C30002B3D00008F3D00008F3D00008F3D0000B8
:103C40008F3D00008F3D00008F3D00008F3D000044
:103C50008F3D0000353D0000353D00008F3D0000E8
:103C60008F3D00008F3D00008F3D00008F3D000024
:103C70008F3D00008F3D00008F3D00003F3D000064
:103C80003F3D00008F3D00008F3D00008F3D000054
:103C90008F3D00008F3D00008F3D00008F3D0000F4
:103CA0008F3D0000493D0000533D00005D3D000098
:103CB000673D00008F3D00008F3D00008F3D0000FC
:103CC0008F3D00008F3D00008F3D0000713D0000E2
:103CD0008F3D00008F3D00008F3D00008F3D0000B4
:103CE0008F3D00008F3D00008F3D00008F3D0000A4
:103CF0008F3D00007B3D00008F3D00008F3D0000A8
:103D00008F3D00008F3D00008F3D00008F3D000083
:103D10008F3D00008F3D00008F3D0000853D00007D
:103D2000FFF73EFA9949086036E0FFF7CDFC974966
:103D3000086031E0FFF776FA944908602CE0FFF75D
:103D4000B3FA9249086027E0FFF7B6FB8F49086095
:103D500022E0FFF72DFB8D4908601DE0FFF7E6FA32
:103D60008A49086018E0FFF765FB8849086013E09E
:103D7000FFF768FC854908600EE0FFF7DFFB834929
:103D8000086009E0FFF71CFCFC49086004E0FFF74D
:103D900007FAFA490860FFE7C7E1F7480078012809
:103DA00000D0E0E0F24800780390462800D9D4E043
:103DB0000398810001A040588746C046ED3E0000B0
:103DC0005B3F00005B3F00005B3F00005B3F00008B
:103DD0005B3F00005B3F00005B3F00005B3F00007B
:103DE0005B3F0000F73E0000F73E00005B3F000035
:103DF0005B3F00005B3F00005B3F00005B3F00005B
:103E00005B3F00005B3F00005B3F0000013F0000A4
:103E1000013F00005B3F00005B3F00005B3F000094
:103E20005B3F00005B3F00005B3F00005B3F00002A
:103E30005B3F00000B3F00000B3F00005B3F0000BA
:103E40005B3F00005B3F00005B3F00005B3F00000A
:103E50005B3F00005B3F00005B3F0000153F000040
:103E60001F3F0000293F0000333F00005B3F000080
:103E70005B3F00005B3F00005B3F00005B3F0000DA
:103E80005B3F00003D3F00005B3F00005B3F0000E8
:103E90005B3F00005B3F00005B3F00005B3F0000BA
:103EA0005B3F00005B3F00005B3F0000473F0000BE
:103EB0005B3F00005B3F00005B3F00005B3F00009A
:103EC0005B3F00005B3F00005B3F00005B3F00008A
:103ED0005B3F0000513F00007C8A00207D8A00206B
:103EE0009890002089910020B80B0000FFF742F95C
:103EF000A249086036E0FFF7D1FBA049086031E035
:103F0000FFF77AF99D4908602CE0FFF7B7F99B4964
:103F1000086027E0FFF7BAFA9849086022E0FFF747
:103F200031FA964908601DE0FFF7EAF99349086005
:103F300018E0FFF769FA9149086013E0FFF76CFB9E
:103F40008E4908600EE0FFF7E3FA8C49086009E04B
:103F5000FFF720FB8949086004E0FFF70BF9874968
:103F60000860FFE7E0E084480078022800D0DAE04B
:103F70007F4800780290462800D9CEE00298810060
:103F800003A040588746C046428F00208091002001
:103F9000AD4000001B4100001B4100001B41000020
:103FA0001B4100001B4100001B4100001B410000A1
:103FB0001B4100001B410000B7400000B74000005B
:103FC0001B4100001B4100001B4100001B41000081
:103FD0001B4100001B4100001B4100001B41000071
:103FE000C1400000C14000001B4100001B41000017
:103FF0001B4100001B4100001B4100001B41000051
:104000001B4100001B410000CB400000CB400000E2
:104010001B4100001B4100001B4100001B41000030
:104020001B4100001B4100001B4100001B41000020
:10403000D5400000DF400000E9400000F3400000F0
:104040001B4100001B4100001B4100001B41000000
:104050001B4100001B410000FD4000001B4100000F
:104060001B4100001B4100001B4100001B410000E0
:104070001B4100001B4100001B4100001B410000D0
:10408000074100001B4100001B4100001B410000D4
:104090001B4100001B4100001B4100001B410000B0
:1040A0001B4100001B41000011410000FFF78EF88A
:1040B0003249086036E0FFF71DFB3049086031E007
:1040C000FFF7C6F82D4908602CE0FFF703F92B49EC
:1040D000086027E0FFF706FA2849086022E0FFF7AA
:1040E0007DF9264908601DE0FFF736F9234908608D
:1040F00018E0FFF7B5F92149086013E0FFF7B8FAB7
:104100001E4908600EE0FFF72FFA1C49086009E01D
:10411000FFF76CFA1949086004E0FFF757F81749F0
:104120000860FFE7FFE7FFE7FFE71448006822F0B9
:1041300019FB1CF05FFD012001901CF075FA01983D
:104140000B4909780B4A1170F64908700EE0F548E2
:104150000078012809D1FFE70D20012100911DF011
:1041600099FE00981CF060FAFFE7FFE708B080BDF9
:104170007C8A00207D8A0020899100208091002087
:1041800070B5E64EB544E64969440870E5480078E4
:10419000002802D1FFE706F066F8E2490020087027
:1041A000E149694401200870E0480078E049694429
:1041B000086000280FD0FFE7DD48684400680A382F
:1041C000022809D3FFE7DA48684400681438022857
:1041D00000D2F9E068E268E2D6480078D64909786A
:1041E000884207D1FFE7D5480078D5490978884249
:1041F0000CD0FFE7CF480078002806D1FFE7D14870
:104200000068D1491AF03BFEFFE7FFE7C948407854
:10421000C9494978884215D1FFE7C6488078C64920
:10422000897888420ED1FFE7C248C078C249C97870
:10423000884207D1FFE7C1480078C1490978884220
:1042400024D0FFE7BF48C149694408600068B94904
:10425000BF4A6A4411604A780021FDF735FFBB4828
:1042600068440068BA496944096800688A7801218D
:10427000FDF72AFFB54868440068B54969440968F4
:104280000068CA780221FDF71FFFFFE7A9480079FF
:10429000A949097988420ED1FFE7A6484079A64985
:1042A0004979884207D1FFE7A2488079A2498979F4
:1042B00088427FD0FFE7FB49694400200870FFE790
:1042C000F84868440078022814DCFFE7F5486844A1
:1042D000007880009B49401880680021C94320F085
:1042E00061FFFFE7EF4868440068401CED496944FE
:1042F0000870E5E78F48F5496944086000790021B6
:10430000F34A6A44116018F037FDF14969440968BD
:10431000EE4868440068007918F03EFE8948ED498F
:1043200069440860806821F0D1FEEA48684400686A
:10433000806822F017FAE548684400684079012156
:10434000E54A6A44116018F017FDE34969440968B9
:10435000DE4868440068407918F01EFEDD48684475
:104360000068C06821F0B2FEDA4868440068C0689E
:1043700022F0F8F9D5486844006880790221D74ACC
:104380006A44116018F0F8FCD04868440068D349CA
:1043900069440968807918F0FFFDCE4868440068D8
:1043A000006921F093FECB4868440068006922F060
:1043B000D9F9FFE760485F490722FCF787F95F48B2
:1043C00000785F49087070E157496944012008701E
:1043D00006F09CF8C2484078C2494978884215D115
:1043E000FFE7BF488078BF49897888420ED1FFE750
:1043F000BB48C078BB49C978884207D1FFE74F481E
:1044000000784F490978884224D0FFE74D48FD499C
:10441000694408600068B249FB4A6A4411604A78FE
:104420000021FDF751FEF74868440068F6496944E9
:10443000096800688A780121FDF746FEF148684462
:104440000068F149694409680068CA780221FDF7EB
:104450003BFEFFE73948007839490978884207D19F
:10446000FFE79F4800789F49097888420CD0FFE712
:104470009B480078002806D1FFE73248006832499F
:104480001AF0FDFCFFE7FFE79548007995490979A7
:10449000884223D1FFE7924840799249497988427E
:1044A0001CD1FFE78E4880798E498979884215D1E1
:1044B000FFE78B48C0798B49C97988420ED1FFE765
:1044C0008748007A8749097A884207D1FFE71B4865
:1044D00000781B490978884200D1D9E071496944C4
:1044E00000200870FFE76F4868440078042831DC3A
:1044F000FFE76C48684400788000124940188068E3
:104500000021C94320F04EFEFFE76648684400687A
:10451000401C644969440870E5E7C046F0F9FFFFB4
:104520000C060000428F0020080600007C8A002054
:10453000A0050000678B0020A58C00208991002039
:104540008C070020B09000202F1A0400980500006E
:104550009C0500006248AD4969440860007900216B
:10456000AB4A6A44116018F007FCA949694409681C
:10457000A64868440068007918F00EFDA548A649D1
:1045800069440860806821F0A1FDA3486844006880
:10459000806822F0E7F89D4868440068407901216E
:1045A0009E4A6A44116018F0E7FB9C496944096817
:1045B000964868440068407918F0EEFC96486844D4
:1045C0000068C06821F082FD934868440068C068B4
:1045D00022F0C8F88D486844006880790221904A2A
:1045E0006A44116018F0C8FB8D496944096887481E
:1045F00068440068807918F0CFFC874868440068F8
:10460000006921F063FD844868440068006922F075
:10461000A9F87E4868440068C0790321814A6A4449
:10462000116018F0A9FB7F4969440968774868441C
:104630000068C07918F0B0FC7748684400684069A9
:1046400021F044FD744868440068406922F08AF80B
:104650006E4868440068007A0421734A6A44116015
:1046600018F08AFB6948684400686F496944096822
:10467000007A18F091FC684868440068806921F06D
:1046800025FD654868440068806922F06BF8FFE703
:10469000144813490922FCF719F864480078644962
:1046A000087002E004060000FFE7624800786249F3
:1046B00069440860462801D905F0D4FD5E48684485
:1046C0000068810008A040588746C0468C0500005D
:1046D0008405000094050000880500009005000096
:1046E000E48B0020248D00203D48000065A20000DE
:1046F00065A2000065A2000065A2000065A200009E
:1047000065A2000065A2000065A2000065A200008D
:1047100065A2000065A2000065A2000065A200007D
:1047200065A2000065A2000065A2000065A200006D
:1047300065A2000065A2000065A2000065A200005D
:1047400065A2000065A2000065A2000065A200004D
:1047500065A2000065A2000065A2000065A200003D
:10476000095A0000095A000065A2000065A2000075
:1047700065A2000065A2000065A2000065A200001D
:1047800065A2000065A20000D75B0000DB620000AC
:10479000FF6D0000897E000065A2000065A2000098
:1047A00065A2000065A2000065A2000065A20000ED
:1047B0003B92000065A2000065A2000065A2000017
:1047C00065A2000065A2000065A2000065A20000CD
:1047D00065A2000065A200004B98000065A20000E1
:1047E00065A2000065A2000065A2000065A20000AD
:1047F00065A2000065A2000065A2000065A200009D
:10480000B9A000007C0500008005000070050000D4
:1048100060050000B09000207805000064050000ED
:10482000680500006C0500007405000089910020F7
:104830008C0700207C8A00205C050000F649694452
:1048400001200870F5484078F5494978884215D12B
:10485000FFE7F2488078F249897888420ED1FFE775
:10486000EE48C078EE49C978884207D1FFE7ED48A5
:104870000078ED490978884224D0FFE7EB48EC49FD
:10488000694408600068E549EA4A6A4411604A7868
:104890000021FDF719FCE64868440068E5496944D1
:1048A000096800688A780121FDF70EFCE048684439
:1048B0000068E049694409680068CA780221FDF788
:1048C00003FCFFE7D5480079D5490979884276D0BD
:1048D000FFE705F01BFED14800798007002820D1B2
:1048E000FFE7D248D449694408609021D34A6A441A
:1048F000116040580021CA430121D14B6B4419601B
:1049000019F006FDCD4A6A441268CB486844006835
:10491000CB49694409688058FF22120619F009FE44
:104920004CE0BE480079C00700281FD0FFE7BF4811
:10493000C449694408609021C34A6A4411604058E0
:104940000121C24A6A441160C14A19F0E1FCBE4A21
:104950006A441268BB4868440068BC4969440968F5
:1049600080580022D24319F0E4FD26E0AB480079DC
:10497000800700281FD5FFE7AC48B64969440860A6
:104980009021B54A6A44116040580121B34A6A44F3
:104990001160B34A19F0BCFCAF4A6A441268AD48D2
:1049A00068440068AD496944096880580022D243D0
:1049B00019F0BFFD00E0FFE7FFE7FFE7FFE79748DB
:1049C000007897490978884210D0FFE7934800782B
:1049D000002806D1FFE795480068A2491AF04FFA6F
:1049E000FFE78E4800788E490870FFE78B484079D2
:1049F0008B494979884200D1C0E09B489B49694472
:104A000008609B489B49694408609B489B496944EE
:104A100008609B489B496944086000209A496944A2
:104A20000860FFE7984868440068022800DDA4E0B9
:104A3000944868440068954969440860924868440D
:104A4000006893496944086000280CD0FFE790484B
:104A500068440068012814D0FFE78D486844006866
:104A600002282FD03CE06D4840798007002807D508
:104A7000FFE77E4868440068844969440860FFE7AE
:104A80002EE066484079400700281AD5FFE76548C0
:104A90000078002807D1FFE77648684400687D4920
:104AA0006944086006E071486844006879496944CF
:104AB0000860FFE777486844006874496944086003
:104AC000FFE70DE055484079C007002807D0FFE711
:104AD0006A48684400686D4969440860FFE7FFE779
:104AE00005F014FD6948684400686B496944086032
:104AF000FBF7C4FD684969440968421C6748684B74
:104B00006B441860FBF7E2FD654969440968424857
:104B10006844644A6A44106002784448001D624B4D
:104B20006B4418609200805820F06DFB5D49694429
:104B300009685D486844006809788900405821F098
:104B4000C5FA5948684400685649694409680978B3
:104B50008900405821F006FE5249694409682E48F0
:104B600068440068401C0870FFE7474868440068D4
:104B7000401C45496944086054E707E026486844FA
:104B80000068C01C244969440870FFE74748007862
:104B900022498979884200D1D5E020488179434A69
:104BA00011708079152800DA96E04148414969443E
:104BB00008600021404A6A44116020F0C3F83D4873
:104BC000684400683C49694409683C4A02603C4AC0
:104BD00042603C4A82603C4AC2603C4A0261426197
:104BE0008261C26120F0D2F81048394969440860F6
:104BF000BC21384A6A44116040580849897920F03C
:104C0000D7F8344969440968314868440068405815
:104C100021F05CFA96E0C04608060000B78A002042
:104C2000F58B0020899100208C070020B090002097
:104C300054050000580500004C0500004805000020
:104C400050050000400500003C0500004405000040
:104C50000000FFFF340500003005000038050000AB
:104C6000008000FF2F1A0400CC1A0400C0050000C9
:104C7000C91A0400BC0500000B1B0400B8050000A5
:104C80001C1A0400B4050000B0050000AC050000CB
:104C90002C0500002805000018050000448A0020AB
:104CA0001C0500002405000020050000848A002067
:104CB000888A0020080500000C050000F0FFF0FFC6
:104CC000B0FFB0FF50FF50FF20FF20FFD3D3D3FF32
:104CD0001405000010050000FC48FB496944086009
:104CE0000021FE4A6A44116020F02CF8F64868441E
:104CF0000068FA4969440968F94A0260F94A426061
:104D0000F94A8260F94AC260F94A026142618261ED
:104D1000C26120F03BF8F748F74969440860BC21BC
:104D2000F64A6A4411604058F549897920F040F804
:104D3000F24969440968F04868440068405821F025
:104D4000C5F9FFE7FFE7EE48C079EE49C979884227
:104D50003CD0FFE705F0DAFBE948C179EA48EB4AC5
:104D60006A441060012205F019FFE84969440968A6
:104D7000E7486844E74A6A4410600278DD48001D4D
:104D8000E54B6B4418609200805820F03CFAE149F2
:104D900069440968E0486844006809788900405817
:104DA00021F094F9DC4868440068DA4969440968EC
:104DB00009788900405821F0D5FCD6496944096832
:104DC000D34868440068401C087007E0D048684435
:104DD0000068401CCE4969440870FFE7C848007A63
:104DE000C849097A884207D1FFE7C548407AC549D2
:104DF000497A884254D0FFE705F088FBC048C7498C
:104E000069440860017AC048C54A6A4410600222B9
:104E1000C44B6B441A6006F01FFAC0496944096824
:104E2000C04A6A441268BE48684400682023837000
:104E30002F24C4700371497A401D06F00DFAB84959
:104E400069440968B2486844B74A6A441060027805
:104E5000A848001DB54B6B4418609200805820F0A4
:104E6000D2F9B14969440968B048684400680978D2
:104E70008900405821F02AF9AC4868440068AA49E2
:104E80006944096809788900405821F06BFCA649FB
:104E9000694409689E4868440068401C087007E03F
:104EA0009B4868440068401C994969440870FFE7C2
:104EB0009348807A9349897A884207D1FFE79048DE
:104EC000C07A9049C97A88425DD0FFE705F01EFBA1
:104ED0008B48974969440860807A0A21954A6A4458
:104EE0001160FBF70FFD9248684400680A4691493B
:104EF000694409683023904C6C4423601A43824B08
:104F00008E4C6C4423601A7020225A702F249C709F
:104F1000DA70C07AFBF7F6FC874A6A4412680846E2
:104F20008649694409681043087179486844844A8D
:104F30006A44106002786F48001D824B6B44186011
:104F40009200805820F05FF97D49694409687D48E6
:104F50006844006809788900405821F0B7F879481A
:104F600068440068764969440968097889004058AE
:104F700021F0F8FB72496944096865486844006893
:104F8000401C087007E0624868440068401C6049A3
:104F900069440870FFE75A48007B5A49097B8842F8
:104FA00007D1FFE75648407B5649497B884254D099
:104FB000FFE705F0ABFA5248634969440860017B9A
:104FC0005148624A6A4410600222614B6B441A6085
:104FD00006F042F95C49694409685D4A6A4412680E
:104FE0005A4868440068202383702F24C4700371DA
:104FF000497B401D06F030F954496944096844482A
:105000006844544A6A44106002783A48001D524B82
:105010006B4418609200805820F0F5F84D496944BF
:1050200009684D486844006809788900405821F0B3
:105030004DF8494868440068464969440968097858
:105040008900405821F08EFB424969440968304884
:1050500068440068401C087007E02D4868440068F8
:10506000401C2B4969440870FFE72548807B25498F
:10507000897B884207D1FFE73848007838490978AA
:10508000884200D190E205F041FA1D48807B00285B
:1050900000D0ADE031480078002819D1FFE71A4868
:1050A00030496944086030490622FBF70FFB2D495F
:1050B0006944096816486844007882000D488018E1
:1050C000406820F0A0F892E0F8040000888A0020F0
:1050D00022480078012866D148E0C046FC04000060
:1050E000F0F0FFFFB0B0FFFF5050FFFF2020FFFFA8
:1050F000D3D3D3FFB09000200405000000050000CA
:10510000B78A0020F58B0020448A0020EC040000C0
:1051100008060000F4040000F0040000D8040000B9
:10512000E0040000DC040000E8040000E4040000E7
:10513000C0040000C4040000C8040000CC04000047
:10514000D4040000D0040000AC040000B40400004B
:10515000B0040000BC040000B804000089910020E5
:105160008C070020A8040000151B0400F148F24938
:1051700069440860FBF782FAEF4969440968421CF8
:10518000EE48EF4B6B441860FBF7A0FAEC4969441A
:105190000968EC48684400788200EB488018406851
:1051A00020F031F822E0E948007802281DD1FFE71D
:1051B000E748E84969440860FBF760FAE549694453
:1051C0000968421CDD48E44B6B441860FBF77EFA2B
:1051D000E14969440968DB48684400788200DA489C
:1051E0008018406820F00FF8FFE7FFE7FFE782E153
:1051F000DA48807B01285FD1FFE7D4480078002897
:1052000013D1FFE7CD490020C8706D2088702E2093
:1052100048704E200870CB48684400788200CA4825
:10522000801840681FF0EFFF45E0C848007801286B
:105230001DD1FFE7CA48CB4969440860FBF71EFA55
:10524000C84969440968421CBC48C74B6B44186094
:10525000FBF73CFAC44969440968BA4868440078D5
:105260008200B948801840681FF0CDFF22E0B7489F
:10527000007802281DD1FFE7BC48BD496944086099
:10528000FBF7FCF9BA4969440968421CAB48B94BC1
:105290006B441860FBF71AFAB64969440968A948D3
:1052A000684400788200A848801840681FF0ABFF6F
:1052B000FFE7FFE7FFE71DE1A848807B02285DD1FB
:1052C000FFE7A2480078002815D1FFE79B48AA49CC
:1052D00069440860A9490722FBF7F8F9A64969441F
:1052E00009689848684400788200974880184068A8
:1052F0001FF089FF41E09548007801281DD1FFE7A4
:105300009F48A04969440860FBF7B8F99D49694482
:105310000968421C89489C4B6B441860FBF7D6F91E
:10532000994969440968874868440078820086483A
:10533000801840681FF067FF1EE08448007802284C
:1053400019D1FFE79148FEA9C867FBF797F9FEA9B5
:10535000C96F421C7948FFABD867FBF7B7F9FFA9C3
:10536000C96F7848684400788200774880184068A0
:105370001FF049FFFFE7FFE7FFE7BAE07748807BD0
:10538000032857D1FFE771480078002813D1FFE7C1
:105390006A48FDA9C8677E490622FBF797F9FDA96F
:1053A000C96F684868440078820067488018406880
:1053B0001FF029FF3DE065480078012819D1FFE77B
:1053C0007448FBA9C867FBF759F9FBA9C96F421CD0
:1053D0005A48FCABD867FBF779F9FCA9C96F594863
:1053E0006844007882005848801840681FF00BFF1E
:1053F0001EE056480078022819D1FFE76648F9A94F
:10540000C867FBF73BF9F9A9C96F421C4B48FAABD7
:10541000D867FBF75BF9FAA9C96F4A486844007876
:1054200082004948801840681FF0EDFEFFE7FFE763
:10543000FFE75DE04948807B042857D1FFE74348F8
:105440000078002813D1FFE73C48F8A9C867534902
:105450000522FBF73BF9F8A9C96F3A486844007880
:1054600082003948801840681FF0CDFE3DE0374883
:105470000078012819D1FFE74948F6A9C867FBF76A
:10548000FDF8F6A9C96F421C2C48F7ABD867FBF7AB
:105490001DF9F7A9C96F2B486844007882002A4893
:1054A000801840681FF0AFFE1EE0284800780228F0
:1054B00019D1FFE73B48F4A9C867FBF7DFF8F4A967
:1054C000C96F421C1D48F5ABD867FBF7FFF8F5A97B
:1054D000C96F1C486844007882001B4880184068E7
:1054E0001FF091FEFFE7FFE7FFE700E0FFE7FFE7C0
:1054F000FFE7FFE7FFE713486844F3A9C8670178AF
:105500001148001DF2AAD0678900405820F0DEFD46
:10551000F2A8C06FF3A9C96F09788900405821F03B
:1055200021F9F3A9C96F074868440068401C087056
:1055300042E0C046C4050020A0040000448A0020C8
:10554000A404000008060000B0900020899100200B
:10555000D8050020980400009C040000B78A0020B1
:10556000400600209004000094040000540600202F
:10557000880400008C040000840400001B1B04004D
:105580009C0500207C04000080040000B005002081
:10559000221B04004405002054050020101B0400B9
:1055A0000408002018080020F34868440068401CE4
:1055B000F14969440870FFE7F048C27B017C0902A9
:1055C0008918427C1204807C000680184018EC493F
:1055D000CB7B0A7C1202D2184B7C1B04897C090607
:1055E000C9188918884207D1FFE7E448807BE4495D
:1055F000897B884273D0FFE704F088FFDF48C27BD5
:10560000017C09028A18417C0B04817C0906C918B7
:105610008918F04A6A441160807B002806D1FFE7B0
:10562000EC486844006805F027F830E0D348807BF8
:10563000012806D1FFE7E7486844006805F054FAFE
:1056400024E0CE48807B022806D1FFE7E148684489
:10565000006804F0BDFF18E0C848807B032806D12D
:10566000FFE7DC486844006805F0A6F80CE0C34892
:10567000807B042806D1FFE7D6486844006817F00D
:105680001FFB00E0FFE7FFE7FFE7FFE7FFE7BA48A0
:105690006844F1A9C8670178CF48001DF0AAD06717
:1056A00089004058CD491FF0AEFDF1A9C96FF0A89F
:1056B000C06F09788900405820F008FDF0A8C06F3D
:1056C000F1A9C96F09788900405821F04BF8F1A978
:1056D000C96FA94868440068401C087007E0A648E4
:1056E00068440068401CA44969440870FFE7A34867
:1056F000C27C017D09028918427D1204807D00066A
:10570000801840189E49CB7C0A7D1202D2184B7D2E
:105710001B04897D0906C9188918884270D0FFE7E3
:1057200004F0F4FE9548C27C017D09028918427D8F
:105730001204807D000680184018A9496944086059
:10574000A74868440068002814D5FFE7A4486844C7
:1057500000684042A24969440860A0482D210170B8
:105760009F4969440968401C012205F06DFB17F050
:105770008BFB09E09A49694409689848012205F0C1
:1057800063FB04F0DDFEFFE77C48C27C017D09027B
:105790008918427D1204807D000680184018002878
:1057A00006D1FFE704F0B2FE8C4930200870FFE715
:1057B00071486844EFA9C86701788748001DEEAAC0
:1057C000D0678900405885491FF01DFDEFA9C96FBA
:1057D000EEA8C06F09788900405820F077FCEEA849
:1057E000C06FEFA9C96F09788900405820F0BAFF4F
:1057F000EFA9C96F604868440068401C087007E062
:105800005D4868440068401C5B4969440870FFE7D4
:105810005A48C17D007E000240185949CA7D097E60
:105820000902891888424AD0FFE704F06FFE534806
:10583000EDA9C867C17D007E00024118694868442F
:10584000018001886548012205F0FCF904F078FE2A
:10585000EDA8C06FC17D007E00024018002806D16F
:10586000FFE704F053FE5D4930200870FFE742482F
:105870006844ECA9C86701785748001DEBAAD067B7
:105880008900405855491FF0BEFCECA9C96FEBA830
:10589000C06F09788900405820F018FCEBA8C06F51
:1058A000ECA9C96F09788900405820F05BFFECA98A
:1058B000C96F314868440068401C087007E02E48F2
:1058C00068440068401C2C4969440870FFE72B4875
:1058D00019302B4919311422FAF77CFE002807D120
:1058E000FFE72648007926490979884266D0FFE714
:1058F00004F00CFE2149E9A8C16719313748142288
:10590000FAF7E4FEE9A8C06F0079F0210840EAA99F
:10591000C867002814D0FFE7EAA8C06F102815D088
:10592000FFE7EAA8C06F202815D0FFE7EAA8C06FFC
:10593000402815D0FFE7EAA8C06F802815D021E0E5
:10594000FF20000628496944086021E027482649CD
:10595000694408601CE0264823496944086017E050
:10596000244821496944086012E0FF20C0431E49D1
:10597000694408600CE0C04608060000B78A0020B1
:10598000F58B0020FF200006174969440860FFE7F7
:105990001148E8A9C8679421E7AAD1674058124A7C
:1059A0006A441268012118F0C4FDE7A9C96FE8A88C
:1059B000C06F4058094918F02FFDFFE70E480F4906
:1059C0002D22FAF783FE0E4800780E49087004F085
:1059D0004AFCC046F8050000B0900020448A002030
:1059E000E0050000E8050000A80500000000FFFF3A
:1059F000008000FFFF0000FFF58B0020B78A002029
:105A0000899100208C070020F24969440120087028
:105A1000F1480078F149097888420CD0FFE7EE4858
:105A20000078002806D1FFE7ED480068ED4919F03D
:105A300026FAFFE7FFE7E8484078E84949788842D6
:105A400015D1FFE7E4488078E449897888420ED18F
:105A5000FFE7E148C078E149C978884207D1FFE70C
:105A6000F6480078F649097888421ED0FFE7DC48FE
:105A7000E5A9C8670068D849E6AAD1674A78002135
:105A8000FCF722FBE5A8C06FE6A9C96F00688A7819
:105A90000121FCF719FBE5A8C06FE6A9C96F0068F2
:105AA000CA780221FCF710FBFFE7CB480079CB490D
:105AB0000979884207D1FFE7C7484079C749497942
:105AC00088427DD0FFE7DF49694400200870FFE786
:105AD000DC4868440078052814DCFFE7D9486844AE
