:020000040000FA
:10000000F0A90020B9040000DF04000051C2000084
:1000100000000000000000000000000000000000E0
:10002000000000000000000000000000E3040000E9
:100030000000000000000000E5040000E7040000EC
:10004000E9040000E9040000E9040000E9040000FC
:10005000E9040000E9040000E9040000E9040000EC
:1000600021E3000075E40000E9040000E904000059
:10007000CDE4000039E5000029DE0000E9040000BD
:10008000E9040000E9040000E9040000E9040000BC
:10009000E9040000E9040000E9040000E9040000AC
:1000A000E9040000E904000079D20000E90400003E
:1000B000E9040000E9040000E9040000E90400008C
:1000C00000F002F800F0BDF80CA030C80838241881
:1000D0002D18671EA246AB4654465D46AC4201D180
:1000E00000F0AFF87E460F3EB6460FCC01263342F5
:1000F00000D0FB1A3343A246AB4618475CBD040050
:100100007CBD0400103A02D378C878C1FAD85207EF
:1001100001D330C830C101D504680C6070470000BD
:100120000023002400250026103A01D378C1FBD813
:10013000520700D330C100D50B60704710B56E294F
:1001400002D100F069FD10BD702902D100F0BFFEA0
:1001500010BD662902D12EF04DFD10BD652902D1DA
:100160002EF048FD10BD672902D12EF043FD10BDD1
:10017000612902D12EF046FD10BD03681B0A01D390
:1001800080231943692902D100F010FD10BD6429B4
:1001900002D100F00BFD10BD752902D100F006FD63
:1001A00010BD6F2902D100F03DFE10BD782902D1AB
:1001B00000F07AFE10BDE92902D100F0D9FD10BD92
:1001C000E42902D100F0D4FD10BDF52902D100F0E0
:1001D000CFFD10BDEF2902D100F030FE10BDF8298F
:1001E00002D100F06FFE10BD0368DB0901D380234C
:1001F0001943632902D101F052FB10BD732902D1CA
:1002000001F055FB10BDE32902D101F05FFB10BDE9
:10021000F32902D101F062FB10BD002010BD1FB513
:1002200001F0BCFB0400002000212EF0CDFC401C9E
:100230006060002000212EF0B1FCE0601FBD10B511
:1002400010BD01F084FB1146FFF7E9FF1FF066FBCC
:1002500001F018FF03B4FFF7F2FF03BC01F01EFF2B
:1002600070B505460C46164602E00FCC0FC5103E91
:10027000102EFAD2082E02D303CC03C5083E042E5A
:1002800007D301CC01C5361F03E021782970641C17
:100290006D1C761EF9D270BD8FB00990089107923F
:1002A0000020039009A800784007002804D0FFE749
:1002B0000020C0430A90E8E0002005907449272000
:1002C0000860099873490860039810300390FFE7AD
:1002D00000200290012004900899059A9200895804
:1002E0006D4A1160089A05998900891849686B4A16
:1002F0001160089A0599890089188968684A11600F
:10030000089A059989008918C968664A1160664982
:1003100008600598001D059005980690FFE706986F
:100320003F2800D99AE001200E900E9880F31088A3
:10033000FFE75E480068C007002813D1FFE70020F0
:100340000D900D9981F3108859490A680F218A434D
:1003500050490A600968099A891A89080591C043B9
:100360000290FFE7FFE75148016800208906890FE6
:100370000029019005D0FFE70298414248410190D1
:10038000FFE70198C0070028D3D1FFE702980028B3
:100390005AD1FFE70398083003900898069989001E
:1003A00040583D4908600899069880004018406808
:1003B0003A490860FFE73D480068C007002813D1AC
:1003C000FFE700200C900C9981F3108838490A68E7
:1003D0000F218A432F490A600968099A891A8908F6
:1003E0000591C0430290FFE7FFE730480168002015
:1003F0000906890F0029009005D0FFE702984142C5
:1004000048410090FFE70098C0070028D3D1FFE7DC
:100410000298002817D1FFE7039808300390089945
:1004200006988000401880681D4908600899069861
:1004300080004018C0681B49086000200B900B9892
:1004400080F31088FFE7FFE70298002801D5FFE757
:1004500004E0FFE70698001D069060E70298002878
:100460000BD1FFE700200490FFE712480068C007A7
:10047000002801D0FFE7F8E7FFE7FFE7049800282E
:1004800000D025E703980A90FFE70A980FB070475D
:100490000CC0004004C0004080C0004084C0004048
:1004A00088C000408CC0004010C00040C0C0004068
:1004B000C4C0004040C000400F48104901601049CE
:1004C000016010490160104A10491160104A114939
:1004D0001160002101601048804710480047FEE786
:1004E000FEE7FEE7FEE7FEE7FEE700000C480D49E9
:1004F0000D4A0E4B704700000001004059000000FB
:10050000160000008800000024000040A55A0000EA
:10051000800200400100000041E10000C100000035
:10052000F09B0020F0A90020F0A10020F0A1002005
:100530000FB4054910B503AA029800F0A7FB10BC40
:1005400008BC04B018470000609200200FB41CB52E
:10055000084B06AA7B4469460090059800F075FB9D
:1005600004460020694600F083FB20461CBC08BC02
:1005700004B01847190700000FB41CB50C0007AAF7
:10058000009007D04142A14202D30019401E01E071
:100590000020C043074B7B4469460190069800F059
:1005A00054FB0021002C01D0009A11701CBC08BC27
:1005B00004B01847E1060000034610B50B439B0743
:1005C0000FD1042A0DD308C810C9121FA342F8D0B6
:1005D00018BA21BA884201D9012010BD0020C043B9
:1005E00010BD002A03D0D30703D0521C07E000201F
:1005F00010BD03780C78401C491C1B1B07D10378E5
:100600000C78401C491C1B1B01D1921EF1D11846CD
:1006100010BD0000034670B502460B439B070FD187
:100620000E4CE60100E008C208C91D1B9D4335427F
:10063000F9D0D9B21170521C00290DD01B0AF8E76D
:100640000B78491C1370521C002B05D00B78491CE9
:100650001370521C002BF3D170BD00000101010189
:1006600030B5441C03E00178401C00290DD08107FF
:10067000F9D10B4BDD0104C8D11A91432940FAD0BE
:10068000001B0A0603D0C01E30BD001B30BD0A048B
:1006900001D0801E30BD0902FCD0401E30BD0000DC
:1006A0000101010110B5044600F002F8204610BD1A
:1006B000F8B5042A2CD3830712D00B78491C037099
:1006C000401C521E83070BD00B78491C0370401C42
:1006D000521E830704D00B78491C0370401C521E25
:1006E0008B079B0F05D0C91ADF002023DE1B08C92A
:1006F0000AE0FFF7B5FDF8BD1D4608C9FD401C46E0
:10070000B4402C4310C0121F042AF5D2F308C91AB2
:10071000521EF0D40B78491C0370401C521EEAD4C0
:100720000B78491C0370401C012AE4D4097801703D
:10073000F8BD431A70B593421BD28918801804E0A3
:10074000491E401E0B78521E03709307F8D106E035
:100750001039103878C9103978C01038103A102A7A
:10076000F6D203E0091F001F0B680360121FF9D5C2
:1007700070BDFFF775FD70BDF8B506461446084319
:10078000800707D0751AA54219D20819102D13D267
:10079000311907E03046FFF7CCFFF8BD401E491E77
:1007A00002780A70641EF9D2F8BD471B2A46394602
:1007B000FFF77EFF641B3846A542F6D3011B224695
:1007C0003046FFF775FFF8BD134610B50446CAB2B0
:1007D00019461002821810048218204600F018F8FA
:1007E000204610BDD2B210B513029A1813049A18FD
:1007F00000F00EF810BD01E004C0091F0429FBD26F
:100800008B0701D50280801CC90700D00270704799
:1008100000290BD0C30702D00270401C491E0229D8
:1008200004D3830702D50280801C891EE3E70022DF
:10083000EEE70022DFE7000082078B079A423FD1F4
:1008400070B5920F0AD0032402780B78401C491C23
:10085000002A33D09A4231D12042F5D1214EF40101
:1008600004C808C9951B9543254018D19A420FD159
:1008700004C808C9951B9543254010D19A4207D159
:1008800004C808C9951B9543254008D19A42E7D072
:1008900012BA1BBA01209A4200D2404270BD12BA6D
:1008A0001BBA2DBA18241000E0401900E140401A8C
:1008B00005D12E00E64002D1083CF4D1D01A70BD1B
:1008C00002780B78401C491C002A09D09A4207D1B3
:1008D00002780B78401C491C002A01D09A42EFD0C4
:1008E000D01A704701010101002203098B4273D322
:1008F000030A8B4258D3030B8B423CD3030C8B422D
:1009000021D312E003460B437FD4002243088B42DD
:1009100074D303098B425FD3030A8B4244D3030B86
:100920008B4228D3030C8B420DD30902FF2212BA4B
:10093000030C8B4202D31212090265D0030B8B42C7
:1009400019D300E0090AC30B8B4201D3CB03C01AB1
:100950005241830B8B4201D38B03C01A5241430B8C
:100960008B4201D34B03C01A5241030B8B4201D37C
:100970000B03C01A5241C30A8B4201D3CB02C01AE7
:100980005241830A8B4201D38B02C01A5241430A5F
:100990008B4201D34B02C01A5241030A8B4201D34E
:1009A0000B02C01A5241CDD2C3098B4201D3CB01F5
:1009B000C01A524183098B4201D38B01C01A5241A4
:1009C00043098B4201D34B01C01A524103098B42A8
:1009D00001D30B01C01A5241C3088B4201D3CB0093
:1009E000C01A524183088B4201D38B00C01A524176
:1009F00043088B4201D34B00C01A5241411A00D226
:100A000001465241104670475DE0CA0F00D049428E
:100A1000031000D3404253409C46002203098B42FE
:100A20002DD3030A8B4212D38901FC2212BA030A86
:100A30008B420CD3890192118B4208D38901921108
:100A40008B4204D389013AD0921100E08909C3098D
:100A50008B4201D3CB01C01A524183098B4201D38F
:100A60008B01C01A524143098B4201D34B01C01A7A
:100A7000524103098B4201D30B01C01A5241C308F2
:100A80008B4201D3CB00C01A524183088B4201D361
:100A90008B00C01A5241D9D243088B4201D34B007C
:100AA000C01A5241411A00D20146524110466346D3
:100AB0005B1001D34042002B00D54942704763468A
:100AC0005B1000D3404201B50449002802DC491CF8
:100AD000084000E00846C046C04602BDFFFFFF7F59
:100AE00070477047704770B5044685690068C10655
:100AF00001D5302600E02026C00707D070BD62680F
:100B00003046A1689047206A401C20626D1EF6D5D1
:100B100070BD70B5044685690078C00707D170BD07
:100B20006268A16820209047206A401C20626D1EE8
:100B3000F6D570BD09684A0501D540B27047C905B0
:100B4000FCD500B2704709684A0501D5C0B27047AC
:100B5000C905FCD580B2704770B50C460546012A20
:100B600005D02878800600D5EA69002302E0012339
:100B700005E05B1C934202D2E05C0028F9D1A86931
:100B8000E618C01AA861286AC01828622846FFF72C
:100B9000AAFF04E06A682078A968641C9047B44200
:100BA000F8D32846FFF7B5FF70BD0000F7B5002564
:100BB00075291068009914A611D0FFF7BBFF002813
:100BC00002DA404211A608E0009909688A0701D5B7
:100BD0000FA602E0490704D50EA6012501E0FFF7A4
:100BE000B2FF009F0024243704E000F09CFE303167
:100BF0003955641C0028F8D12B463246214600980E
:100C000000F073FAFEBD0000000000002D0000009F
:100C10002B0000002000000011680268006A5305E4
:100C200001D5087009E0D30501D5088005E0130659
:100C300002D5C21705C100E008600120704700001E
:100C400001694A1C02610878704700B58FB00291B3
:100C500000210591054901937944039111460490BF
:100C6000684600F041F90FB000BD0000E5FFFFFF4E
:100C70000A681070521C0A6070470CC908399A4201
:100C800002D2531C0B60107070470000084B70B507
:100C90000D467B44FFF7D9FF044628461EF02EFE82
:100CA000002802D00020C04370BD204670BD000067
:100CB00073EC0100F7B50446154686B02B4878441E
:100CC000002703C83E460090019111E007986A464C
:100CD0007100415A02A800F005FE411C07D021789E
:100CE000890603D5E269391891420ED83F18761C5F
:100CF0002078800602D5E069B84206DDAE42E5DB29
:100D000007987100405A0028E0D1A069C01BA0617B
:100D10002046FFF7E8FE154878445A3803C800908B
:100D20000020019116E041006A460798415A02A846
:100D300000F0D8FD0590401C0AD0002505E062684F
:100D400002A8A168405D90476D1C05988542F6D3C6
:100D50000498401CB0420490E5DB206AC019206270
:100D60002046FFF7D6FE09B0F0BD0000DA8E030082
:100D7000F7B5D21D0025D20815A6D200F52905CA5F
:100D800011D0002A05DA00214042914111A60A46FD
:100D900008E0009909688B0701D50FA602E0490712
:100DA00001D50EA601251146009F0024243704E03A
:100DB00000F05EF930323A55641C02460A43F7D11E
:100DC0002B4632462146009800F08FF9FEBD000008
:100DD000000000002D0000002B000000200000009B
:100DE00070B504460021243408E05507D2086D0F81
:100DF000303565545D072A43DB08491C15461D4301
:100E0000F3D10468002310A2250708D520252C4023
:100E10000C4304D0C46901230CA2641EC46100F019
:100E200064F970BD10B5044621461068FFF78BFECB
:100E3000002302462046FFF7D3FF10BDD21DD10884
:100E4000C9000CC9CCE70000000000003000000021
:100E5000F8B50F460188090502D5224C7C4402E012
:100E6000204C7C440E3405460021243508E016074A
:100E70001209360FA65D6E541E0732431B09491C2A
:100E800016461E43F3D1224604780023240705D5D5
:100E9000702F06D0002901D00223113200F025F96D
:100EA000F8BD01231032F9E770B504460D4621461E
:100EB0001068FFF748FE0023024629462046FFF748
:100EC000C7FF70BDD21DD308DB000CCBC0E730B428
:100ED000036820241268234303600823C36130BCE5
:100EE0000023B5E7448D0300F3B50446002081B02C
:100EF00020622046E1688847002872D0252802D069
:100F00006268A168ABE0594F00267F442046E16843
:100F100088472028054608DB312D06D2781920386D
:100F20000078002801D00643F0E7B00701D504207F
:100F300086430020E0610746A0612A2D0AD028469A
:100F40002DF024FE002827D0B8000019303D009075
:100F5000856119E00298BA00121902C891610290E5
:100F60002046E1688847012F054617D1E06900282F
:100F70001FDA202086431CE000980A21806948433C
:100F800000994019303888612046E1688847054655
:100F90002DF0FCFD0028EFD1012F0AD02E2D08D115
:100FA0002046E16888470546202006437F1C022F23
:100FB000C3DBA069002803DA4042A0610120064398
:100FC000F00701D0102086436C2D0BD0682D09D07E
:100FD0004C2D3CD06A2D38D0742D38D07A2D36D097
:100FE00016E040E0E1682F4620468847B8420546B3
:100FF00009D16C2F29D001208002E16806432046E8
:101000008847054604E06C2F1DD0FF2001300643C1
:10101000002D28D028464138192803D80120C002C5
:1010200006432035204626602946029A1646FFF7D9
:1010300085F8002810D001280BD0F61DF008C0005C
:101040000830029055E74020E1E78020D5E70020F6
:10105000D3E7361D02964CE762682846A1689047A0
:10106000206A401C44E7206AFEBD0000BE8C0300DD
:101070000B4670B5024689078008084319469D084B
:10108000141AA94125090807054308092C194841E4
:10109000250A01060D43010A2C194141200C0D04BB
:1010A00028430D0C00194D41002140194D41C00845
:1010B00069070843E908840F8D002543840024183C
:1010C0004D4124196D41121BAB4107E00925ED4349
:1010D0002C11521963410024401C61411C460A2511
:1010E0000026551BB441F1D270BDFFB504460D4634
:1010F00081B0243000902168880604D51022E06970
:101100009143216000E00120A84201DD471B00E07F
:1011100000270498A1697A191018081AA06120788C
:10112000C00602D42046FFF7DEFC002608E0039844
:101130006268A168805D9047206A401C761C20622E
:1011400004988642F3DB2078C0060AD52046FFF7D4
:10115000CAFC06E06268A16830209047206A401C03
:10116000206238467F1E0028F4DC07E000986268A1
:10117000A168405D9047206A401C206228466D1E91
:101180000028F3DC2046FFF7C4FC2078000602D5D7
:10119000022005B0F0BD0120FBE70000FFB50C46C2
:1011A0001E468FB003CA089009914F007D0D00D1F3
:1011B0006D1E002108460020C0460321099A8905BA
:1011C0000840002A03DA8200801840080840800D99
:1011D00001280A9002DD0020C0430A9008980743C6
:1011E0000DD0F048F04928184843071418980028F3
:1011F0001DD07542291E1DDD0A9842421BE0189839
:10120000012802D00020302104E00020F24305E054
:101210002154401CB042FBDB30460022189B0021C9
:1012200021540F998B600A60486013B0F0BDBD1B5C
:101230006D1CDFE70A9A002900DA69420BA800F06A
:10124000F5FB0BAB07CB03AB07C30899099800F07C
:1012500059FC6B4607C30146D4480918002D00917C
:101260000BDDD24903980A9A49424018002303A98A
:101270000390684600F0B6FE08E003990A9A00233E
:10128000081803A90390684600F056FE6B4607C392
:101290000004000C03D00020C043410800E01046C9
:1012A000189A002A03D00022009215461EE0751EEF
:1012B00005D4FFF7DDFE303262556D1EF9D50122EF
:1012C0000843079602D000227F1C04E020783028D3
:1012D00001D100227F1E002A069787D01EE0112D23
:1012E00007DAFFF7C5FE303262556D1C02460A432D
:1012F000F5D1084303D00098002819D00EE0002152
:10130000681E05E0235C625C63542254401E491C45
:101310008142F7DBA81B401E07950690079A189993
:101320000020A0540F98079B069A81600CC07CE7B0
:1013300011260020189059E7D21DF0B50D4604463D
:10134000D10893B0C90003C90C900D912DF08CFB0E
:1013500002460D98C00F01D02D2007E020688107BC
:1013600001D52B2002E04007C00F4001032A0F9057
:1013700001D0072A05DB03462946204600F012FB70
:101380000EE12078800601D5E76900E006272846AF
:10139000652D04D0662814D0672D69D12DE000207A
:1013A000112F009001DB112300E07B1C0CAA03A984
:1013B00010A8FFF7F3FE1199002610987D1C0E91DE
:1013C00042E001203B460CAAC0070B900120009090
:1013D00003A910A8FFF7E2FE119D129810990026AC
:1013E00000280E9501D1781C0D18781B02D44642B6
:1013F0007D1C761EE81B00903AE0012F00DA0127E1
:101400000020112F009001DD112300E03B460CAAC3
:1014100003A910A8FFF7C2FE11993D4610980026B7
:101420000E91217809070BD40E99A94200DA0D46D6
:1014300003A9012D04DD4A19203AD27F302A06D0B3
:10144000B84201DA011D04DA012100910FE06D1E9E
:10145000EFE7002802DC86192D1A03E0411CA9429F
:1014600000DD0D46801B401C00900120C0070B9042
:101470002078000705D40098A84202DB0020C04372
:10148000009069460020C8720B98012102AF033713
:10149000C907884225D0022010902B2011900B986C
:1014A00000280BDA40420B902D20119006E00B989B
:1014B00000F039FA30317F1E0B9039701099481EB8
:1014C00000291090F3DC0B980028F0D111987F1EB2
:1014D00038702088000501D5452000E065207F1E7A
:1014E000387001A8C01BC01D0B900F98002800D0B9
:1014F000012041190098C01709180B980818A16914
:10150000081A401EA0612078C00602D42046FFF7CA
:10151000EAFA0F98002805D06268A1689047206A0F
:10152000401C20622078C00625D52046FFF7DBFA54
:1015300021E0002E07DB0E98B04204DD03A86268AC
:10154000805DA16802E06268A16830209047206A4F
:10155000761C401C20620098401E002800900AD192
:1015600000F01CFAC06862680168405CA16890479E
:10157000206A401C206228466D1E0028D9DC07E046
:1015800062683878A1687F1C9047206A401C2062FE
:101590000B99481E00290B90F2DC2046FFF7B9FAA0
:1015A000032042E601FCFFFF104D0000E1DFFFFFDA
:1015B000D21DF0B504460D46D0088DB0C000466877
:1015C0000768314638462DF04FFA0246F00F01D039
:1015D0002D2307E02068810701D52B2302E0400777
:1015E000C00F43016846002B037001D0012000E0CA
:1015F0000020032A0A9001D0072A04DB294620464E
:1016000000F0D0F92DE12078800601D40D2500E00E
:10161000E5697000400D0D2D01904BDA300D002171
:101620000B9008460020C046032189050840002E83
:1016300005DA82008018C20F10184010084080158B
:10164000012801DD0020C043A9000023182906D38A
:101650009C460A460123183A1B07D34003E00122A7
:101660001205CA4094460C31202902D33A4620394B
:1016700000E032468A40002802DD002A06D119E047
:10168000002817D10121C9078A4213D3194663469E
:101690007F185E41002806D10120C007824202D196
:1016A000084687439E430B98310D814202D0019832
:1016B000401C01902088000502D57149794402E060
:1016C0006F49794419396B460A9830221A540A989E
:1016D0000A7C401C1A54401C0A900198002801DC26
:1016E000302000E031201872019A0120002A02D037
:1016F000644BD21804E072003A4302D0614A521C93
:101700000192002D02DC2278120703D56A462E20B2
:10171000507202200022864694460CE032033601C5
:10172000120F6D1E8B5C02AA13546246521C401CA1
:101730009446052A01DA002DF0DC002202AE08E012
:101740003B0F3F01CB5C521C6D1E3354401C082ADA
:1017500001DA002DF4DC23689A0601D511E0401E61
:10176000704504DD3218203AD27F302AF7D00028A5
:1017700007DD3218203AD27F2E2A02D11A0700D470
:10178000401E002D03DD3E223254401C6D1E497C5C
:1017900031540199401C002906DA2D21471C31548F
:1017A00001984042019003E02B21471C31540198DD
:1017B0007D21C900884206DBFFF7A4F83030F055E0
:1017C0007F1C019101E0642808DB01986421FFF788
:1017D00099F83030F0557F1C019101E00A2806DBB2
:1017E00001980A21FFF78EF83030F0557F1C0198E0
:1017F0000A21FFF787F83031F1550A98A1697F1C5B
:101800007A191018081AA0612078C00602D4204660
:10181000FFF769F9216A6E460A980818206204E009
:1018200062683078A168761C90470A98401E0A903A
:10183000401CF5D12078C00602D52046FFF753F9A9
:1018400002AE09E03078761C3E280DD06268A168AF
:101850009047206A401C20627F1EF3D22046FFF78B
:1018600058F90DB00320F0BD206A4019206203E052
:101870006268A168302090476D1EEDD3F8E7000044
:101880003085030001FCFFFF10B54369002B02D037
:10189000C046C04601E0FFF75FF9012010BD127895
:1018A000014624310A7000224A700122ECE71168D7
:1018B0000022D243E8E710B54369002B02D0C046AE
:1018C000C04601E0FFF7F6F9012010BD128801467D
:1018D000243182840022C2840122ECE711680022B4
:1018E000D243E8E7F8B516460C46054600F04EF838
:1018F0000368FF200230C05C012807D0FF2C0FD8FE
:10190000185D00280CD001202C70F8BDFF33324642
:10191000214608331868C71828460023B847F8BD81
:101920000020C043F8BD01468008081A02091018BB
:10193000020A1018020C1018C00882001218520077
:10194000891A01E0401C0A390A29FBD27047754602
:1019500000F0A0FBAE46050069465346C008C00033
:10196000854618B020B5FEF7C1FD60BCB64600261E
:101970000027C0C5C0C5C0C5C0C5C0C5C0C5C0C59D
:10198000C0C5403D490849008D46704710B500F07C
:1019900005F8001D10BD00BF31D20200004870479D
:1019A000300B0020F8B51F46044601230068DB0217
:1019B000032601461840072A05DB002801D017A599
:1019C00006E017A504E0002801D016A500E016A542
:1019D000102081432160A069C01E002FA06101D0AA
:1019E000401EA0612046FFF77EF8002F09D0384640
:1019F0006268A1689047206A401C2062C01C206277
:101A000006E0206AFAE762682878A1686D1C9047B2
:101A1000761EF8D22046FFF77CF8F8BD4E414E0006
:101A20006E616E00494E4600696E6600F7B5164657
:101A30008AB0334878446C4603467C33C06F5A689A
:101A40009B680DC42E487844763003AC0DC80DC495
:101A50003720C001081837211B30FEF753FF054619
:101A60000C46803D1B3C02D56442012000E0002072
:101A70000027099010E0E0070CD00C2020497843A3
:101A8000794432464C3941186846012300F054FA33
:101A90006B4607C364107F1C002CECD1184F7F44A9
:101AA0002E3F16E0E80712D02001C0190EC806919B
:101AB000089307920068F04201D1981908903246C5
:101AC000012306A903A800F037FA03AB07C36D1082
:101AD000641C002DE6D10998002806D032466946DC
:101AE000012303A800F07EFA05E00123324669468F
:101AF00003A800F021FA0A9B07C30DB0F0BD000057
:101B0000CC810300034640000A4610B5400D0BD0BF
:101B10000121C9070F24A40200191C0364082143F2
:101B2000540D2143D20207E000210120F2E7D40F37
:101B3000490021435200401E0029F8DADB0FDB0781
:101B4000184310BDFFB50D46144685B0486851686E
:101B50002CF072FF00910190A868A1682CF06CFF36
:101B600002910390A86861682CF066FF029A12182F
:101B70008242029201D2012000E00020019A0B185B
:101B8000D2180028019202D08A4202D903E08A4288
:101B900001D2012000E00020009908180090686838
:101BA000A1682CF049FF029A12188242029201D2D7
:101BB000012000E00020019A0B18D21800280192A1
:101BC00002D08A4202D903E08A4201D2012000E019
:101BD00000200099081800902868216840004900FA
:101BE000400849084018FA49471814E00199400094
:101BF000C90F08430090019802994000C90F08439B
:101C00000190029803994000C90F0843029003987D
:101C100040007F1E039000980028E7DA089800280B
:101C200001D0EC4E00E00026B74201DA012000E0CE
:101C30000020002804902AD0F71BF806C00E15D00B
:101C4000029B2021091A039A8B401A430392029A9D
:101C5000019BC2408B401A430292019A009BC240F2
:101C60008B4000991A430192C14000917B110DD025
:101C70006F460320C11A03D500218200B95003E04A
:101C80008A008100BA587A50401EF3D5374603982F
:101C90000299002800D001200143089802910028F1
:101CA00008460CD0002800D001200199019A49056E
:101CB00008430121D20AC902D202019200E00121A7
:101CC0000E9B0122D207012B02D0002B03D013E080
:101CD000002807D120E0904204D890420CD1019B0B
:101CE0000B4209D0019B5918019105D10099491C5B
:101CF000009101D17F1C009200280DD010210846D0
:101D00000020C0460498002806D00F98002803D071
:101D1000082108460020C04628682168019B009AD7
:101D20004840C10F0598C90739430EC009B0F0BD3E
:101D3000FFB587B0099A0898089953689268406877
:101D4000896896460022039317469446089A1268BB
:101D50005300099A5B081268520052089A1A9E4B67
:101D6000D4180A9A002A01D0352200E040220692B7
:101D70000022012315460492DB07059324E0002D81
:101D800005D175460346039E4D1BB34109D37546E5
:101D90006646039B491B049D9841059B7519AC46FB
:101DA0005F4163463B4308D0059B049EDD077608F0
:101DB0002E435B080496059301E0521E641EC50F76
:101DC000ED0749184041521C069B9A42D7DB002D73
:101DD00004D17546039A6B1A824101D203200CE0AC
:101DE000039A0B466B404240134303D0014303D098
:101DF000012002E0022000E0002061460191002164
:101E0000009702910A99002905D0614640020143DA
:101E1000704B019102E08007002302909C4201DA9E
:101E2000012000E0002007003AD01A1BD006C00EA7
:101E300015D0029D2021019C091AC5408C402543E4
:101E4000029C8C4000D001242543019C0295009DFA
:101E5000C4408D4000992C430194C140009154111D
:101E60001DD06D460221002202290CD10320001B47
:101E700007E0002804DB8600AE59002E00D00122C6
:101E8000401C0328F5DB081B02D588002A5004E01B
:101E90008000285810438A00A850491EE3D51C46EC
:101EA0000A98002802980CD0002800D0012001993F
:101EB000019A490508430121D20AC902D2020192BE
:101EC00000E00121109B0122D207012B02D0002B40
:101ED00003D013E0002807D11FE0904204D89042BD
:101EE0000CD1019B0B4209D0019B5918019105D1DE
:101EF0000099491C009101D1641C009200280CD06B
:101F0000102108460020C046002F06D01198002856
:101F100003D0082108460020C04608980999019A74
:101F2000009B006809684840C10F0798C907214312
:101F300082600AC00BB0F0BD00B585B0019300927D
:101F40000A460146002302A8FFF7FCFD02A807C8C5
:101F500005B000BDFFB50A461F4685B0079901933D
:101F600001230091014602A8FFF7ECFD02990398B6
:101F7000049ECA0F4900D20700920F22490892021C
:101F80008C1A0021002800DB0C46450013486D0820
:101F9000844214D3079A002A04DA441E0026104D06
:101FA000F64302E004460D460E4610210846002086
:101FB000C046002F03D0042108460020C04620055B
:101FC000E90A0843009908436905F20A1143ADE69E
:101FD00002C0FFFF013C0000FF3F0000FF070000C0
:101FE000FFFFFF7F00B585B0019300920A460146CE
:101FF000002302A8FFF79CFE02A807C8A8E7FFB5C8
:102000000A461F4685B007990193012300910146B6
:1020100002A8FFF78DFE02990398049ECA0F49009B
:10202000D20700920F22490892028C1A0021002840
:1020300000DB0C46450011486D08844214D3079A12
:10204000002A04DA441E00260D4DF64302E0044641
:102050000D460E46102108460020C046002F03D032
:10206000042108460020C0462005E90A08430099DB
:1020700008436905F20A114358E60000FF07000013
:10208000FFFFFF7F10B50446C046C0462046FEF75E
:10209000E1F810BD00487047100B002001491820DE
:1020A000ABBEFEE7260002007047000080B5C0B05E
:1020B0003F903EA801703DA80270FE4800780028BD
:1020C00000D020E10AF05EF93DA80078002801D197
:1020D000FFE704E13DA8007801280AD1FFE7F649AF
:1020E0005020087061204870672088706520C87093
:1020F000F4E03DA80078022810D1FFE7EE49502017
:10210000087061204870672088706520C8702020A2
:1021100008715520487170208871DEE03DA8007874
:10212000032815D1FFE7E4493C9150200870612055
:102130004870672088706520C8702020087144208E
:1021400048716F2088717720C8716E200872C3E0D3
:102150003DA80078042810D1FFE7D7494220087035
:1021600061204870722088706320C8706F200871E9
:102170006420487165208871ADE03DA8007805288D
:102180000FD1FFE7CC49432008706F2048706D20C5
:1021900088706622CA7069220A7172224A71887137
:1021A00098E03DA8007806280CD1FFE7C2494520F9
:1021B00008706E204870742088706520C870722086
:1021C000087186E03DA8007807280DD1FFE7BA49DD
:1021D00053200870652048706C228A70C870632094
:1021E00008717420487173E03DA8007808280AD16E
:1021F000FFE7B14942200870612048706320887071
:102200006B20C87063E03DA8007809280AD1FFE779
:10221000A9494E2008706520487078208870742085
:10222000C87053E03DA800780A280AD1FFE7A24908
:102230005320087074204870652088707020C87022
:1022400043E03DA800780B2811D1FFE79A493B9164
:10225000532008706520487071228A707522CA70F8
:1022600008716E224A7163228A71C8712CE03DA800
:1022700000780C280CD1FFE78F49432008706C20B0
:102280004870652088706120C870722008711AE05B
:102290003DA800780D2814D1FFE787493A915320D3
:1022A00008706520487071228A702022CA7043220B
:1022B0000A716C224A7188716120C871722008729B
:1022C00000E0FFE7FFE7FFE7FFE7FFE7FFE7FFE7E4
:1022D000FFE7FFE7FFE7FFE7FFE7FFE7FFE73EA8CE
:1022E000389001787548C430399089004058744955
:1022F0001EF0C2F9389939980978890040586E491A
:102300001EF0CBF923E36B480078012800D094E15C
:102310000AF038F83DA80078002814D1FFE73EA85D
:10232000369001786548C430379089004058644938
:102330001EF0A2F93699379809788900405861490A
:102340001EF0ABF978E13DA80078012815D1FFE730
:102350003EA8349001785948C430359089004058DF
:1023600057491EF089F93499359809788900405801
:10237000554909681EF091F95DE13DA800780228F1
:1023800015D1FFE73EA8329001784C48C430339015
:10239000890040584A491EF06FF9329933980978FC
:1023A00089004058494909681EF077F942E13DA883
:1023B0000078032815D1FFE73EA8309001783F4808
:1023C000C4303190890040583D491EF055F930998C
:1023D00031980978890040583D4909681EF05DF937
:1023E00027E13DA80078042815D1FFE73EA82E90EC
:1023F00001783248C4302F908900405830491EF08F
:102400003BF92E992F98097889004058314909687D
:102410001EF043F90CE13DA80078052815D1FFE72F
:102420003EA82C9001782548C4302D908900405852
:1024300023491EF021F92C992D98097889004058DC
:10244000254909681EF029F9F1E03DA80078062821
:1024500015D1FFE73EA82A9001781848C4302B9088
:102460008900405816491EF007F92A992B980978D7
:1024700089004058194909681EF00FF9D6E03DA8B7
:10248000007807282ED1FFE73EA8289001780B4856
:10249000C43029908900405809491EF0EDF8289968
:1024A00029980978890040580D4909681EF0F5F807
:1024B000BBE0C04609940020848B002030930020AC
:1024C000E09C0300B6AC0400AC070020BC07002071
:1024D000B007002048040020E80400204C0600203B
:1024E000000800203DA80078082815D1FFE73EA885
:1024F00026900178FC48C430279089004058FB4959
:102500001EF0BAF826992798097889004058F849AA
:1025100009681EF0C2F887E03DA80078092815D1A7
:10252000FFE73EA824900178EF48C4302590890049
:102530004058EE491EF0A0F82499259809788900A2
:102540004058EC4909681EF0A8F86CE03DA80078F6
:102550000A2815D1FFE73EA822900178E248C4304E
:10256000239089004058FE491EF086F8229923984E
:10257000097889004058F74909681EF08EF851E043
:102580003DA800780B2815D1FFE73EA820900178E0
:10259000F248C430219089004058F1491EF06CF88F
:1025A00020992198097889004058FE4909681EF051
:1025B00074F836E03DA800780C2815D1FFE73EA856
:1025C0001E900178E548C4301F9089004058E449C6
:1025D0001EF052F81E991F98097889004058F0495A
:1025E00009681EF05AF81BE03DA800780D2815D1A7
:1025F000FFE73EA81C900178D848C4301D908900A0
:102600004058D7491EF038F81C991D980978890060
:102610004058E24909681EF040F800E0FFE7FFE794
:10262000FFE7FFE7FFE7FFE7FFE7FFE7FFE7FFE77A
:10263000FFE7FFE7FFE7FFE788E1C74800780228E8
:1026400000D082E13DA80078002814D1FFE73EA821
:102650001A900178C148C4301B9089004058C04985
:102660001EF00AF81A991B98097889004058CA493F
:102670001EF013F868E13DA80078012815D1FFE7A6
:102680003EA818900178B548C43019908900405888
:10269000B3491DF0F1FF189919980978890040583D
:1026A000BC4909681DF0F9FF4DE13DA800780228FA
:1026B00015D1FFE73EA816900178A848C4301790BE
:1026C00089004058A6491DF0D7FF16991798097838
:1026D00089004058AE4909681DF0DFFF32E13DA88E
:1026E0000078032815D1FFE73EA8149001789B4895
:1026F000C43015908900405899491DF0BDFF1499C8
:102700001598097889004058A04909681DF0C5FF4F
:1027100017E13DA80078042815D1FFE73EA81290E4
:1027200001788E48C4301390890040588C491DF0C0
:10273000A3FF1299139809788900405892490968B3
:102740001DF0ABFFFCE03DA80078052815D1FFE7A0
:102750003EA8109001788148C430119089004058FB
:102760007F491DF089FF1099119809788900405818
:10277000844909681DF091FFE1E03DA80078062832
:1027800015D1FFE73EA80E9001787448C4300F9031
:102790008900405872491DF06FFF0E990F98097813
:1027A00089004058764909681DF077FFC6E03DA8CA
:1027B0000078072815D1FFE73EA80C9001786748FC
:1027C000C4300D908900405865491DF055FF0C99A3
:1027D0000D98097889004058684909681DF05DFF27
:1027E000ABE03DA80078082815D1FFE73EA80A9085
:1027F00001785A48C4300B908900405858491DF060
:102800003BFF0A990B980978890040585A49096892
:102810001DF043FF90E03DA80078092815D1FFE79F
:102820003EA8089001784D48C4300990890040586E
:102830004B491DF021FF08990998097889004058F3
:102840004C4909681DF029FF75E03DA800780A2869
:1028500015D1FFE73EA8069001784048C4300790A4
:10286000890040583E491DF007FF069907980978EE
:10287000890040583E4909681DF00FFF5AE03DA805
:1028800000780B2815D1FFE73EA804900178334863
:10289000C43005908900405831491DF0EDFE04997F
:1028A0000598097889004058304909681DF0F5FEFF
:1028B0003FE03DA800780C281ED1FFE73EA802901B
:1028C00001782648C43003908900405824491DF0FF
:1028D000D3FE029903980978890040582249096873
:1028E0001DF0DBFE24E0C04630930020E09C030096
:1028F00040040020680700203DA800780D2815D16D
:10290000FFE73EA8009001781448C4300190890088
:10291000405813491DF0B0FE0099019809788900CC
:102920004058104909681DF0B8FE00E0FFE7FFE7D6
:10293000FFE7FFE7FFE7FFE7FFE7FFE7FFE7FFE767
:10294000FFE7FFE7FFE7FFE7FFE7FFE7FFE740B04D
:1029500080BDC0466C080020099400203093002000
:10296000E09C030014080020E40400203C08002040
:10297000780800206C070020440400200408002090
:1029800050060020EC0400204C040020B407002076
:10299000C0070020B8070020B6AC040010080020D3
:1029A000E00400203808002080B50E4800680721A8
:1029B000084002280ED1FFE7A1490868042210430D
:1029C0000860102000F0A4FB0649086807221043A5
:1029D0000860FFE7D149086801221204104308602B
:1029E00080BDC0461002004084B0039008200290D1
:1029F000042001900020009003981F2201461140FE
:102A000001238B40800F810068464158024A885854
:102A10001843885004B070470402004080B592B05B
:102A200010900F91FFF7C0FF109800280ED1FFE71C
:102A3000834A116801200143116000F069FB002006
:102A40000A90DB480E9002200D900FE07C49086848
:102A5000042210430860102000F05AFB0120C0043B
:102A60000A90D4480E9002200D90FFE701208007C5
:102A700000680F2109020840000A06280AD0FFE773
:102A80000120800700680F2109020840000A012880
:102A900003D1FFE75B48029002E059480290FFE74C
:102AA0000F98029988421AD8FFE70F985649884232
:102AB00015D3FFE70F985249884208D8FFE7042052
:102AC0000B90032009900F9880000F9006E00220E1
:102AD0000B9009900F9840000F90FFE700E078E01E
:102AE0000020C143059103900490FFE70D98212831
:102AF00053D8FFE70E980D991DF0A8FA0890089892
:102B00004549884244D3FFE70898444988423FD862
:102B1000FFE702200C90FFE70C984149884236D825
:102B2000FFE708990C984843079007983D49884269
:102B300028D3FFE707983C49884223D8FFE7079846
:102B40000F99884205D9FFE707980F99401A01901D
:102B500004E00F980799401A0190FFE7019806904A
:102B60000698059988420CD2FFE7069805900D98C3
:102B700003900C9804900598002801D1FFE706E027
:102B8000FFE7FFE7FFE70C98401C0C90C4E7FFE766
:102B9000FFE70D98401C0D90A8E70A980999890352
:102BA0000843039949021B4A891808430499891E5E
:102BB0000843A6490860042000F0AAFA0E980B9A70
:102BC000039951431DF042FA01460498484311907D
:102BD00012E01098002804D1FFE79C490C480860D7
:102BE00003E09A4909480860FFE7042000F090FAE2
:102BF00000F096F81190FFE7119812B080BDC04622
:102C000000D8B80500449508C0320A035EC2080027
:102C10005ECC000000FCFFFF016A1800FF23F400F7
:102C20000102000000C2EB0BFF64CD1D81B00090DB
:102C3000009ADE4908681043086001B07047C0463A
:102C40000002004080B582B00BF03AFA0D480068EF
:102C50000721084001900C4800680199C84002B063
:102C600080BDC04680B582B00BF02AFA05480068E6
:102C70007021084000090190034800680199C8408C
:102C800002B080BD34020040AC08002080B588B09E
:102C90006D480290002007906C480068019001A8E0
:102CA00080780521084235D1FFE701A88078000728
:102CB000002803D5FFE76748069002E064480690C5
:102CC000FFE701A880788007002803D5FFE7069872
:102CD00007901EE001A80088810B02A84018007828
:102CE000039001985C490840801C059001981F21C1
:102CF00049020840400A801C049006988108059803
:102D00004843049A039951431DF0A0F980000790AD
:102D1000FFE7FFE7079808B080BDC04640020040CB
:102D200080B588B048480290002007904748006866
:102D3000019001A880780521084235D1FFE701A85C
:102D400080780007002803D5FFE74248069002E09C
:102D50003F480690FFE701A880788007002803D548
:102D6000FFE7069807901EE001A80088810B02A8E3
:102D7000401800780390019837490840801C05905E
:102D800001981F2149020840400A801C04900698BF
:102D9000810805984843049A039951431DF056F958
:102DA00080000790FFE7FFE7079808B080BDC046A6
:102DB0000048E801001BB70080B588B022480290A7
:102DC0000020079021480068019001A88078052123
:102DD000084235D1FFE701A880780007002803D515
:102DE000FFE71C48069002E019480690FFE701A89B
:102DF00080788007002803D5FFE7069807901EE03B
:102E000001A80088810B02A840180078039001985F
:102E100011490840801C059001981F214902084073
:102E2000400A801C04900698810805984843049A3B
:102E3000039951431DF00AF980000790FFE7FFE76F
:102E4000079808B080BDC04601020204400200405D
:102E50000048E801001BB700FF01000080B584B006
:102E60000390BA48006810210840029001208007B2
:102E700000680F2109020840000A06280AD0FFE76F
:102E80000120800700680F2109020840000A01287C
:102E900003D1FFE72A48019002E028480190FFE7AC
:102EA00003980199884203D9FFE701980390FFE74F
:102EB00003982449884203D8FFE723480390FFE79B
:102EC0003A490868042210430860102000F020F9F5
:102ED000604908680722104308605D4908680F22AE
:102EE0009043086099480068C007002807D0FFE7B2
:102EF000039841000020FFF791FD03900CE0039838
:102F000041000120C004FFF789FD03908F4800684D
:102F1000102108400290FFE70220012100F016F87E
:102F20000298002806D1FFE7204908680422904350
:102F30000860FFE70398400804B080BD006CDC0225
:102F400000A24A045F1985016019850110B584B09B
:102F5000039002917D480168102001400191134ABD
:102F6000116804231943116000F0D2F83949086848
:102F7000072210430860364B18680F24A043029CB8
:102F80002043186008689043039A104308600BF0D0
:102F900097F80198002806D1FFE704490868042241
:102FA00090430860FFE704B010BDC0460002004037
:102FB0008DB00C900B910A920020099008900C2182
:102FC0000791082106910421059104901021039195
:102FD0000290019000900C98800A0006002817D0FB
:102FE000FFE70CA841880C2001406846405818496A
:102FF00040180890089800680C9A910AC9B2920586
:10300000D20E914088430A99084308990860FFE767
:103010000C980001400F002817D0FFE70C98810E94
:103020000C20014004A840580A494018099009980A
:1030300000680C9A1101490FD201D20E91408843C9
:103040000B99084309990860FFE70DB07047C04627
:10305000200200401002004081B0009000992848F2
:10306000006848432749086027490020086027492D
:1030700005200860FFE725480068C003002801D448
:10308000FFE7F8E721490020086001B07047C0461B
:1030900081B0009000991A480068484319490860B7
:1030A000194900200860194905200860FFE7174802
:1030B0000068C003002801D4FFE7F8E713490020A7
:1030C000086001B07047C04681B0009000990C487C
:1030D000006848430B4908600B49002008600B4911
:1030E00005200860FFE709480068C003002801D4F4
:1030F000FFE7F8E705490020086001B07047C046C7
:103100000005002014E000E018E000E010E000E01E
:1031100083B001900C480090FFE70C4800680199CB
:10312000084088420AD0FFE70098411E009100281D
:1031300003DCFFE70020029003E0EEE701200290AD
:10314000FFE7029803B0704780F52000500200406E
:1031500080B584B025F018FB034650200190002074
:1031600000900448044A1F211FF008FE03900398B2
:1031700004B080BDA834040079CC010080B584B0CF
:1031800025F002FB034650200190002000900448E7
:10319000044A1F211FF0F2FD0390039804B080BD84
:1031A0000C38040019DA010080B584B025F0ECFA7F
:1031B000034650200190002000900448044A1F213B
:1031C0001FF0DCFD0390039804B080BD703B040049
:1031D0004DE8010080B584B025F0D6FA03465020B2
:1031E0000190002000900448044A0A211FF0C6FD07
:1031F0000390039804B080BDE8FA0300950801002D
:1032000080B584B025F0C0FA03465020019000201C
:1032100000900448044A0A211FF0B0FD039003986F
:1032200004B080BD00FC0300810D010080B584B0B6
:1032300025F0AAFA0346502001900020009004488F
:10324000044A0A211FF09AFD0390039804B080BD40
:1032500018FD03002D11010080B584B025F094FA0B
:10326000034650200190002000900448044A212188
:103270001FF084FD0390039804B080BD30FE03006E
:10328000F915010080B584B025F07EFA0346502080
:103290000190002000900448044A21211FF06EFD97
:1032A0000390039804B080BDCC0104009D1E010072
:1032B00080B584B025F068FA0346502001900020C4
:1032C00000900448044A21211FF058FD0390039800
:1032D00004B080BD68050400E126010080B584B01B
:1032E00025F052FA03465020019000200090044837
:1032F000044A15211FF042FD0390039804B080BDDD
:1033000088120400B553010080B584B025F03CFA62
:10331000034650200190002000900448044A1521E3
:103320001FF02CFD0390039804B080BDD41404005A
:10333000155D010080B584B025F026FA03465020C3
:103340000190002000900448044A15211FF016FD4A
:103350000390039804B080BD20170400E1620100CF
:1033600080B584B025F010FA03465020019000206B
:1033700000900448044A11211FF000FD03900398B7
:1033800004B080BDF40C04001D3F010080B584B082
:1033900025F0FAF9034650200190002000900448DF
:1033A000044A11211FF0EAFC0390039804B080BD89
:1033B000D00E0400ED46010080B584B025F0E4F99C
:1033C000034650200190002000900448044A112137
:1033D0001FF0D4FC0390039804B080BDAC1004002F
:1033E000E54B010080B584B025F0CEF903465020AE
:1033F0000190002000900448044A19211FF0BEFCEF
:103400000390039804B080BD6C190400556C010052
:1034100080B584B025F0B8F9034650200190002013
:1034200000900448044A19211FF0A8FC0390039857
:1034300004B080BD281C04000977010080B584B069
:1034400025F0A2F903465020019000200090044886
:10345000044A19211FF092FC0390039804B080BD28
:10346000E41E04006D7D010080B584B025F08CF968
:10347000034650200190002000900448044A0C218B
:103480001FF07CFC0390039804B080BD0409040085
:10349000852F010080B584B025F076F903465020D1
:1034A0000190002000900448044A0C211FF066FCA3
:1034B0000390039804B080BD540A040059350100FC
:1034C00080B584B025F060F90346502001900020BB
:1034D00000900448044A0C211FF050FC039003980C
:1034E00004B080BDA40B04005139010080B584B044
:1034F00025F04AF90346502001900020009004482E
:10350000044A13211FF03AFC0390039804B080BDD5
:10351000A02104002188010080B584B025F034F991
:10352000034650200190002000900448044A1321D3
:103530001FF024FC0390039804B080BDB423040062
:10354000D190010080B584B025F01EF903465020CB
:103550000190002000900448044A13211FF00EFC43
:103560000390039804B080BDC8250400359601007F
:1035700080B584B025F008F9034650200190002062
:1035800000900448044A08211FF0F8FB03900398B8
:1035900004B080BDDC270400D99E010080B584B052
:1035A00025F0F2F8034650200190002000900448D6
:1035B000044A08211FF0E2FB0390039804B080BD89
:1035C000BC280400F9A2010080B584B025F0DCF825
:1035D000034650200190002000900448044A08212E
:1035E0001FF0CCFB0390039804B080BD9C2904001D
:1035F00031A6010080B584B025F0C6F803465020FE
:103600000190002000900448044A1F211FF0B6FBDF
:103610000390039804B080BD7C2A040055AA0100E1
:1036200080B584B025F0B0F803465020019000200A
:1036300000900448044A1F211FF0A0FB0390039848
:1036400004B080BDE02D040095B7010080B584B0C2
:1036500025F09AF80346502001900020009004487D
:10366000044A1F211FF08AFB0390039804B080BD19
:103670004431040039BF010080B584B025F084F8DE
:10368000034650200190002000900448044A0B217A
:103690001FF074FB0390039804B080BD4CF7030047
:1036A00049FA000080B584B025F06EF8034650203A
:1036B0000190002000900448044A0B211FF05EFB9B
:1036C0000390039804B080BD80F8030075FF0000EC
:1036D00080B584B025F058F80346502001900020B2
:1036E00000900448044A0B211FF048FB0390039804
:1036F00004B080BDB4F903006903010081B0FFE7A5
:103700000B48017801200029009008D1FFE7094803
:103710000068012149040840400C0090FFE7009830
:10372000C007002801D0FFE7EAE701B07047C046B4
:10373000DC9B002064000D40B0B590B00FAA107063
:103740000EA80170454A08A938CA38C138CA38C11C
:103750008D49079100214056002806D5FFE700213A
:103760000EA840564042039004E000210EA84056A7
:103770000390FFE70398069000210EA8405600280A
:1037800035D0FFE7002005900698642807DBFFE7A7
:1037900006987F2803DCFFE70220059017E00698D3
:1037A0000A2807DBFFE70698632803DCFFE7012010
:1037B00005900BE00698012807DBFFE7069809282B
:1037C00003DCFFE700200590FFE7FFE7FFE70021AC
:1037D0000EA84056002804D5FFE70598C01C0590A8
:1037E000FFE7079805998A0008A98850FFE700209D
:1037F0000490FFE7049805282BDCFFE70FA800786A
:10380000810062484018406804998A0008A98958D4
:1038100024F01BFA0498052812D1FFE70FA80190A5
:1038200001785A48001D02908900405825F070F92F
:103830000199029809788900405825F0B5FCFFE706
:103840000F98401C0FA90870FFE70498401C0490D3
:10385000D0E70FA8007810B0B0BDC046989C030018
:10386000B0B590B00FAA10700EA80170454A08A913
:1038700038CA38C138CA38C1434907910021405677
:10388000002806D5FFE700210EA8405640420390CD
:1038900004E000210EA840560390FFE7039806902D
:1038A00000210EA84056002835D0FFE700200590E3
:1038B0000698642807DBFFE706987F2803DCFFE70C
:1038C0000220059017E006980A2807DBFFE7069814
:1038D000632803DCFFE7012005900BE00698012830
:1038E00007DBFFE70698092803DCFFE700200590C7
:1038F000FFE7FFE7FFE700210EA84056002804D5A8
:10390000FFE70598C01C0590FFE7079805998A0016
:1039100008A98850FFE700200490FFE704980528D5
:103920002BDCFFE70FA8007881001848401840689A
:1039300004998A0008A9895824F087F90498052871
:1039400012D1FFE70FA8019001781048001D0290E6
:103950008900405825F0DCF801990298097889001F
:10396000405825F021FCFFE70F98401C0FA9087074
:10397000FFE70498401C0490D0E70FA8007810B02F
:10398000B0BDC046B09C03001CB1040030930020C1
:1039900037490868012290430860704780B582B0BB
:1039A000019000200090019801214905884204D12E
:1039B000FFE700F02BF80090FFE70098002821D1E6
:1039C000FFE74549222008600198444908604549BD
:1039D00001200860FFE743480068C007002801D0C5
:1039E000FFE7F8E7224800684006002809D5FFE70E
:1039F0001F4908684022104308600020C04300901F
:103A0000FFE7FFE7009802B080BDC04681B000200C
:103A10000090314922200860012041052F4A1160A1
:103A20002F4A0F4911602F490860FFE72D480068B1
:103A3000C007002801D0FFE7F8E70D4800684006FE
:103A4000002809D5FFE70A490868402210430860AA
:103A50000020C0430090FFE7009801B07047C046C7
:103A600003AA550002490868012210430860704704
:103A700000C0004081B00090174900200860009805
:103A800016490860174901200860FFE715480068DB
:103A9000C007002801D0FFE7F8E71148006801B02F
:103AA0007047C04682B0019000910B492120086008
:103AB00001980A49086000980949086009490120ED
:103AC0000860FFE707480068C007002801D0FFE74B
:103AD000F8E702B07047C0460CC0004004C0004088
:103AE00008C0004010C0004080B588B0F1480078A0
:103AF000F1490978884205D1FFE7F04800780128AC
:103B000000D012E3ED48007801280ED1FFE7EC4821
:103B1000017806A8017000780BF0D0FBE948FFF7A8
:103B20009BFAE6490020087045E0E24800780A2840
:103B300005D1FFE7E04800780B2832D0FFE7DD48E9
:103B400000780B2805D1FFE7DB4800780A2828D049
:103B5000FFE7D8480078142805D1FFE7D648007859
:103B600015281ED0FFE7D3480078152805D1FFE7B8
:103B7000D1480078142814D0FFE7CE4800781E28DA
:103B800005D1FFE7CC4800781F280AD0FFE7C948D5
:103B900000781F280DD1FFE7C74800781E2808D1FC
:103BA000FFE7C4480078C4490870EE490120087056
:103BB000CAE2FFE7FFE7EC48006824F04DFCC0488C
:103BC0000078002800D0D6E0BA4800780490462853
:103BD00000D9CAE00498810001A040588746C04639
:103BE000FD3C00006B3D00006B3D00006B3D0000A4
:103BF0006B3D00006B3D00006B3D00006B3D000025
:103C00006B3D00006B3D0000073D0000073D0000DC
:103C10006B3D00006B3D00006B3D00006B3D000004
:103C20006B3D00006B3D00006B3D00006B3D0000F4
:103C3000113D0000113D00006B3D00006B3D000098
:103C40006B3D00006B3D00006B3D00006B3D0000D4
:103C50006B3D00006B3D00001B3D00001B3D000064
:103C60006B3D00006B3D00006B3D00006B3D0000B4
:103C70006B3D00006B3D00006B3D00006B3D0000A4
:103C8000253D00002F3D0000393D0000433D000070
:103C90006B3D00006B3D00006B3D00006B3D000084
:103CA0006B3D00006B3D00004D3D00006B3D000092
:103CB0006B3D00006B3D00006B3D00006B3D000064
:103CC0006B3D00006B3D00006B3D00006B3D000054
:103CD000573D00006B3D00006B3D00006B3D000058
:103CE0006B3D00006B3D00006B3D00006B3D000034
:103CF0006B3D00006B3D0000613D0000FFF73EFAA8
:103D00009949086036E0FFF7CDFC9749086031E03B
:103D1000FFF776FA944908602CE0FFF7B3FA92496E
:103D2000086027E0FFF7B6FB8F49086022E0FFF745
:103D30002DFB8D4908601DE0FFF7E6FA8A4908600F
:103D400018E0FFF765FB8849086013E0FFF768FC9F
:103D5000854908600EE0FFF7DFFB8349086009E052
:103D6000FFF71CFCFC49086004E0FFF707FAFA497A
:103D70000860FFE7C7E1F7480078012800D0E0E0DD
:103D8000F24800780390462800D9D4E003988100D7
:103D900001A040588746C046C93E0000373F00009A
:103DA000373F0000373F0000373F0000373F00003B
:103DB000373F0000373F0000373F0000373F00002B
:103DC000D33E0000D33E0000373F0000373F0000E5
:103DD000373F0000373F0000373F0000373F00000B
:103DE000373F0000373F0000DD3E0000DD3E0000B1
:103DF000373F0000373F0000373F0000373F0000EB
:103E0000373F0000373F0000373F0000373F0000DA
:103E1000E73E0000E73E0000373F0000373F00006C
:103E2000373F0000373F0000373F0000373F0000BA
:103E3000373F0000373F0000F13E0000FB3E00002E
:103E4000053F00000F3F0000373F0000373F0000F4
:103E5000373F0000373F0000373F0000373F00008A
:103E6000193F0000373F0000373F0000373F000098
:103E7000373F0000373F0000373F0000373F00006A
:103E8000373F0000373F0000233F0000373F00006E
:103E9000373F0000373F0000373F0000373F00004A
:103EA000373F0000373F0000373F0000373F00003A
:103EB0002D3F0000EC8B0020ED8B0020189300209C
:103EC00009940020B80B0000FFF742F9A2490860EE
:103ED00036E0FFF7D1FBA049086031E0FFF77AF93F
:103EE0009D4908602CE0FFF7B7F99B49086027E07F
:103EF000FFF7BAFA9849086022E0FFF731FA9649CD
:103F000008601DE0FFF7EAF99349086018E0FFF741
:103F100069FA9149086013E0FFF76CFB8E4908606D
:103F20000EE0FFF7E3FA8C49086009E0FFF720FB99
:103F30008949086004E0FFF70BF987490860FFE74B
:103F4000E0E084480078022800D0DAE07F4800787A
:103F50000290462800D9CEE00298810003A0405884
:103F60008746C0465E9100200094002089400000F2
:103F7000F7400000F7400000F7400000F740000065
:103F8000F7400000F7400000F7400000F740000055
:103F9000F74000009340000093400000F74000000D
:103FA000F7400000F7400000F7400000F740000035
:103FB000F7400000F7400000F74000009D4000007F
:103FC0009D400000F7400000F7400000F74000006F
:103FD000F7400000F7400000F7400000F740000005
:103FE000F7400000A7400000A7400000F740000095
:103FF000F7400000F7400000F7400000F7400000E5
:10400000F7400000F7400000F7400000B14000001A
:10401000BB400000C5400000CF400000F74000005A
:10402000F7400000F7400000F7400000F7400000B4
:10403000F7400000D9400000F7400000F7400000C2
:10404000F7400000F7400000F7400000F740000094
:10405000F7400000F7400000F7400000E340000098
:10406000F7400000F7400000F7400000F740000074
:10407000F7400000F7400000F7400000F740000064
:10408000F7400000ED400000FFF78EF8324908606D
:1040900036E0FFF71DFB3049086031E0FFF7C6F856
:1040A0002D4908602CE0FFF703F92B49086027E051
:1040B000FFF706FA2849086022E0FFF77DF9264954
:1040C00008601DE0FFF736F92349086018E0FFF7A4
:1040D000B5F92149086013E0FFF7B8FA1E490860F6
:1040E0000EE0FFF72FFA1C49086009E0FFF76CFAB1
:1040F0001949086004E0FFF757F817490860FFE71F
:10410000FFE7FFE7FFE71448006825F04DF81FF0D0
:1041100081FA012001901EF097FF01980B49097860
:104120000B4A1170F64908700EE0F5480078012836
:1041300009D1FFE70D200121009120F0CDFB00986F
:104140001EF082FFFFE7FFE708B080BDEC8B002088
:10415000ED8B0020099400200094002070B5E64EFD
:10416000B544E64969440870E5480078002802D162
:10417000FFE707F09AFFE24900200870E14969442F
:1041800001200870E0480078E04969440860002890
:104190000FD0FFE7DD48684400680A38022809D3D9
:1041A000FFE7DA48684400681438022800D2F9E0D2
:1041B00068E268E2D6480078D6490978884207D193
:1041C000FFE7D5480078D549097888420CD0FFE749
:1041D000CF480078002806D1FFE7D1480068D149D0
:1041E0001DF05DFBFFE7FFE7C9484078C949497802
:1041F000884215D1FFE7C6488078C6498978884249
:104200000ED1FFE7C248C078C249C978884207D1B9
:10421000FFE7C1480078C1490978884224D0FFE708
:10422000BF48C149694408600068B949BF4A6A4447
:1042300011604A780021FDF739FFBB4868440068E7
:10424000BA496944096800688A780121FDF72EFFA0
:10425000B54868440068B549694409680068CA7887
:104260000221FDF723FFFFE7A9480079A949097951
:1042700088420ED1FFE7A6484079A649497988428D
:1042800007D1FFE7A2488079A249897988427FD087
:10429000FFE7FB49694400200870FFE7F8486844DD
:1042A0000078022814DCFFE7F548684400788000B5
:1042B0009B49401880680021C94323F095FCFFE723
:1042C000EF4868440068401CED4969440870E5E720
:1042D0008F48F5496944086000790021F34A6A442F
:1042E00011601BF0AFFAF14969440968EE4868446F
:1042F000006800791BF0B6FB8948ED496944086005
:10430000806824F005FCEA4868440068806824F06E
:104310004BFFE5486844006840790121E54A6A445A
:1043200011601BF08FFAE34969440968DE4868446C
:10433000006840791BF096FBDD4868440068C0685F
:1043400024F0E6FBDA4868440068C06824F02CFFDB
:10435000D5486844006880790221D74A6A441160D0
:104360001BF070FAD04868440068D3496944096872
:1043700080791BF077FBCE4868440068006924F020
:10438000C7FBCB4868440068006924F00DFFFFE7D5
:1043900060485F490722FCF78BF95F4800785F4966
:1043A000087070E1574969440120087007F0EAFF7E
:1043B000C2484078C2494978884215D1FFE7BF48D2
:1043C0008078BF49897888420ED1FFE7BB48C07822
:1043D000BB49C978884207D1FFE74F4800784F4969
:1043E0000978884224D0FFE74D48FD4969440860B8
:1043F0000068B249FB4A6A4411604A780021FDF71F
:1044000055FEF74868440068F64969440968006841
:104410008A780121FDF74AFEF14868440068F149B5
:10442000694409680068CA780221FDF73FFEFFE78A
:104430003948007839490978884207D1FFE79F4811
:1044400000789F49097888420CD0FFE79B480078A4
:10445000002806D1FFE73248006832491DF01FFAF4
:10446000FFE7FFE79548007995490979884223D10C
:10447000FFE7924840799249497988421CD1FFE789
:104480008E4880798E498979884215D1FFE78B481B
:10449000C0798B49C97988420ED1FFE78748007AF5
:1044A0008749097A884207D1FFE71B4800781B49F2
:1044B0000978884200D1D9E0714969440020087028
:1044C000FFE76F4868440078042831DCFFE76C4858
:1044D0006844007880001249401880680021C94370
:1044E00023F082FBFFE7664868440068401C64498B
:1044F00069440870E5E7C04658F7FFFFA4080000CC
:104500005E910020A0080000EC8B00203408000021
:104510002D8D0020C38E002009940020C0080020AB
:1045200030930020B6AC04002C08000030080000D6
:104530006248AD496944086000790021AB4A6A4489
:1045400011601BF07FF9A94969440968A6486844CD
:10455000006800791BF086FAA548A64969440860FE
:10456000806824F0D5FAA34868440068806824F085
:104570001BFE9D4868440068407901219E4A6A44B8
:1045800011601BF05FF99C496944096896486844CA
:10459000006840791BF066FA964868440068C06875
:1045A00024F0B6FA934868440068C06824F0FCFD23
:1045B0008D486844006880790221904A6A441160FD
:1045C0001BF040F98D4969440968874868440068D0
:1045D00080791BF047FA874868440068006924F036
:1045E00097FA844868440068006924F0DDFD7E483D
:1045F00068440068C0790321814A6A4411601BF055
:1046000021F97F4969440968774868440068C0799E
:104610001BF028FA774868440068406924F078FA6B
:10462000744868440068406924F0BEFD6E486844E0
:104630000068007A0421734A6A4411601BF002F991
:104640006948684400686F4969440968007A1BF04A
:1046500009FA684868440068806924F059FA654896
:1046600068440068806924F09FFDFFE714481349FF
:104670000922FCF71DF8644800786449087002E0DC
:104680009C080000FFE762480078624969440860BE
:10469000462801D907F008FD5E486844006881009B
:1046A00008A040588746C0462008000018080000AF
:1046B000280800001C08000024080000AC8D002021
:1046C000408F002019480000A9C00000A9C00000C8
:1046D000A9C00000A9C00000A9C00000A9C0000036
:1046E000A9C00000A9C00000A9C00000A9C0000026
:1046F000A9C00000A9C00000A9C00000A9C0000016
:10470000A9C00000A9C00000A9C00000A9C0000005
:10471000A9C00000A9C00000A9C00000A9C00000F5
:10472000A9C00000A9C00000A9C00000A9C00000E5
:10473000A9C00000A9C00000A9C0000009780000BD
:1047400009780000A9C00000A9C00000A9C00000AD
:10475000A9C00000A9C00000A9C00000A9C00000B5
:10476000A9C00000F779000025810000458C0000F9
:10477000C99C0000A9C00000A9C00000A9C0000099
:10478000A9C00000A9C00000A9C0000087B00000B7
:10479000A9C00000A9C00000A9C00000A9C0000075
:1047A000A9C00000A9C00000A9C00000A9C0000065
:1047B000A9C000008DB60000A9C00000A9C000007B
:1047C000A9C00000A9C00000A9C00000A9C0000045
:1047D000A9C00000A9C00000A9C00000FBBE0000E5
:1047E000100800001408000004080000F40700008E
:1047F000309300200C080000F8070000FC070000C0
:10480000000800000808000009940020C0080020EB
:10481000EC8B0020F0070000E84969440120087093
:10482000E7484078E7494978884215D1FFE7E448EE
:104830008078E449897888420ED1FFE7E048C07863
:10484000E049C978884207D1FFE7FA480078FA4979
:104850000978884224D0FFE7F848F949694408609C
:104860000068D749F74A6A4411604A780021FDF789
:104870001DFCF34868440068F2496944096800680F
:104880008A780121FDF712FCED4868440068ED4983
:10489000694409680068CA780221FDF707FCFFE750
:1048A000C7480079C7490979884276D0FFE707F001
:1048B00069FDC34800798007002820D1FFE7DF4861
:1048C000E149694408609021E04A6A441160405817
:1048D0000021CA430121DE4B6B4419601CF028FA09
:1048E000DA4A6A441268D84868440068D84969447A
:1048F00009688058FF2212061CF02BFB4CE0B048E0
:104900000079C00700281FD0FFE7CC48D14969448F
:1049100008609021D04A6A44116040580121CF4A72
:104920006A441160CE4A1CF003FACB4A6A4412680A
:10493000C84868440068C949694409688058002229
:10494000D2431CF006FB26E09D4800798007002832
:104950001FD5FFE7B948C349694408609021C24A9E
:104960006A44116040580121C04A6A441160C04A3B
:104970001CF0DEF9BC4A6A441268BA486844006810
:10498000BA496944096880580022D2431CF0E1FA10
:1049900000E0FFE7FFE7FFE7FFE789483330894999
:1049A00033311422FBF708FE002827D0FFE78448A4
:1049B0000078002806D1FFE7A0480068AD491CF048
:1049C0006EFFFFE707F0DEFC7D49AB4868440160FD
:1049D0003331AA48AA4A6A4410601422FBF768FEE1
:1049E000A74969440968954800681CF058FFA24827
:1049F00068440068007873490870FFE770484079A0
:104A000070494979884200D1C0E09E489E49694476
:104A100008609E489E49694408609E489E496944D2
:104A200008609E489E496944086000209D49694489
:104A30000860FFE79B4868440068022800DDA4E0A6
:104A400097486844006898496944086095486844F4
:104A5000006896496944086000280CD0FFE7934835
:104A600068440068012814D0FFE790486844006853
:104A700002282FD03CE0524840798007002807D513
:104A8000FFE7814868440068874969440860FFE798
:104A90002EE04B484079400700281AD5FFE76548CB
:104AA0000078002807D1FFE779486844006880490A
:104AB0006944086006E07448684400687C496944B9
:104AC0000860FFE77A4868440068774969440860ED
:104AD000FFE70DE03A484079C007002807D0FFE71C
:104AE0006D4868440068704969440860FFE7FFE763
:104AF00007F048FC6C48684400686E4969440860E7
:104B0000FBF7AEFD6B4969440968421C5B486A4B80
:104B10006B441860FBF7CCFD674969440968274876
:104B20006844664A6A44106002784448001D644B39
:104B30006B4418609200805823F087F85F496944FD
:104B400009685F486844006809788900405823F084
:104B5000DFFF5B4868440068584969440968097880
:104B60008900405824F020FB5449694409681348DF
:104B700068440068401C0870FFE74A4868440068C1
:104B8000401C48496944086054E707E00B48684402
:104B90000068C01C094969440870FFE7494800786B
:104BA00007498979884200D1DBE005488179454A87
:104BB00011708079152807DA9CE0C046A008000033
:104BC000278C0020BD8D00203F4840496944086083
:104BD00000213F4A6A44116022F0D6FD3B486844F8
:104BE00000683B49694409683A4A02603A4A4260AF
:104BF0003A4A82603A4AC2603A4A0261426182613C
:104C0000C26122F0E5FD0D48374969440860BC21C6
:104C1000364A6A44116040583549897922F0EAFDE4
:104C2000324969440968304868440068405823F0B4
:104C30006FFF95E009940020C00800203093002009
:104C4000E8070000EC070000E0070000DC070000B8
:104C5000E4070000D4070000D0070000D8070000D8
:104C60000000FFFFC8070000C4070000CC070000D9
:104C7000008000FFB6AC0400C0070000848B002059
:104C8000BC07000078A704005808000075A70400BE
:104C900054080000B3A7040050080000D9A604007F
:104CA0004C0800004808000044080000B807000055
:104CB000B4070000A4070000A8070000B007000028
:104CC000AC070000F48B0020F88B00209407000054
:104CD00098070000F0FFF0FFB0FFB0FF50FF50FF5B
:104CE00020FF20FFD3D3D3FFA00700009C070000C4
:104CF000278C0020FC48FB49694408600021FE4ADB
:104D00006A44116022F040FDF64868440068FA49A0
:104D100069440968F94A0260F94A4260F94A8260C6
:104D2000F94AC260F94A026142618261C26122F0BD
:104D30004FFDF748F74969440860BC21F64A6A44C8
:104D400011604058F549897922F054FDF2496944CF
:104D50000968F04868440068405823F0D9FEFFE72E
:104D6000FFE7EE48C079EE49C97988423CD0FFE7B9
:104D700007F008FBE948C179EA48EB4A6A44106049
:104D8000012207F07FFEE84969440968E748684462
:104D9000E74A6A4410600278DD48001DE54B6B4429
:104DA00018609200805822F050FFE1496944096878
:104DB000E0486844006809788900405823F0A8FE5C
:104DC000DC4868440068DA49694409680978890060
:104DD000405824F0E9F9D64969440968D348684441
:104DE0000068401C087007E0D04868440068401C18
:104DF000CE4969440870FFE7C848007AC849097A73
:104E0000884207D1FFE7C548407AC549497A8842B8
:104E100054D0FFE707F0B6FAC048C74969440860B4
:104E2000017AC048C54A6A4410600222C44B6B44F0
:104E30001A6008F085F9C04969440968C04A6A44A3
:104E40001268BE4868440068202383702F24C47011
:104E50000371497A401D08F073F9B849694409683B
:104E6000B2486844B74A6A4410600278A848001DF6
:104E7000B54B6B4418609200805822F0E6FEB149B1
:104E800069440968B0486844006809788900405856
:104E900023F03EFEAC4868440068AA4969440968AA
:104EA00009788900405824F07FF9A64969440968C7
:104EB0009E4868440068401C087007E09B486844AE
:104EC0000068401C994969440870FFE79348807A5C
:104ED0009349897A884207D1FFE79048C07A904980
:104EE000C97A88425DD0FFE707F04CFA8B489749B2
:104EF00069440860807A0A21954A6A441160FBF788
:104F0000F3FC9248684400680A469149694409687C
:104F10003023904C6C4423601A43824B8E4C6C447B
:104F200023601A7020225A702F249C70DA70C07A85
:104F3000FBF7DAFC874A6A441268084686496944E6
:104F400009681043087179486844844A6A441060CB
:104F500002786F48001D824B6B44186092008058A5
:104F600022F073FE7D49694409687D486844006801
:104F700009788900405823F0CBFD794868440068DF
:104F800076496944096809788900405824F00CF989
:104F9000724969440968654868440068401C0870A3
:104FA00007E0624868440068401C60496944087032
:104FB000FFE75A48007B5A49097B884207D1FFE73F
:104FC0005648407B5649497B884254D0FFE707F05A
:104FD000D9F95248634969440860017B5148624AE3
:104FE0006A4410600222614B6B441A6008F0A8F812
:104FF0005C49694409685D4A6A4412685A486844D1
:105000000068202383702F24C4700371497B401DE6
:1050100008F096F854496944096844486844544A79
:105020006A44106002783A48001D524B6B44186085
:105030009200805822F009FE4D49694409684D48A4
:105040006844006809788900405823F061FD4948A8
:1050500068440068464969440968097889004058ED
:1050600024F0A2F84249694409683048684400685D
:10507000401C087007E02D4868440068401C2B491C
:1050800069440870FFE72548807B2549897B884271
:1050900007D1FFE73848007838490978884200D1BD
:1050A000C4E207F06FF91D48807B002800D0ADE016
:1050B00031480078002819D1FFE71A48304969447F
:1050C000086030490622FBF7F3FA2D496944096864
:1050D00016486844007882000D488018406822F025
:1050E000B4FD92E084070000F88B0020224800788D
:1050F000012866D148E0C04688070000F0F0FFFFB5
:10510000B0B0FFFF5050FFFF2020FFFFD3D3D3FFED
:1051100030930020900700008C070000278C0020AF
:10512000BD8D0020848B002078070000A0080000BF
:10513000800700007C070000640700006C07000087
:105140006807000074070000700700004C070000AB
:1051500050070000540700005807000060070000D7
:105160005C07000038070000400700003C07000013
:10517000480700004407000009940020C0080020F0
:1051800034070000BDA70400EB48EC4969440860FF
:10519000FBF766FAE94969440968421CE848E94BAB
:1051A0006B441860FBF784FAE64969440968E648ED
:1051B000684400788200E5488018406822F045FD88
:1051C00022E0E348007802281DD1FFE7E148E249E8
:1051D00069440860FBF744FADF4969440968421CE6
:1051E000D748DE4B6B441860FBF762FADB49694431
:1051F0000968D548684400788200D448801840681F
:1052000022F023FDFFE7FFE7FFE7ECE1D448807BD6
:1052100001285FD1FFE7CE480078002813D1FFE7CF
:10522000C7490020C8706D2088702E2048704E201D
:105230000870C548684400788200C44880184068F7
:1052400022F003FD45E0C248007801281DD1FFE7A8
:10525000C448C54969440860FBF702FAC249694479
:105260000968421CB648C14B6B441860FBF720FA32
:10527000BE4969440968B448684400788200B3486C
:105280008018406822F0E1FC22E0B1480078022852
:105290001DD1FFE7B648B74969440860FBF7E0F95C
:1052A000B44969440968421CA548B34B6B44186073
:1052B000FBF7FEF9B04969440968A34868440078DF
:1052C0008200A2488018406822F0BFFCFFE7FFE799
:1052D000FFE787E1A248807B022861D1FFE79C4875
:1052E0000078002815D1FFE79548A4496944086073
:1052F000A3490722FBF7DCF9A049694409689248F1
:1053000068440078820091488018406822F09DFC33
:1053100045E08F48007801281DD1FFE799489A4958
:1053200069440860FBF79CF9974969440968421C85
:105330008348964B6B441860FBF7BAF9934969446C
:105340000968814868440078820080488018406875
:1053500022F07BFC22E07E48007802281DD1FFE786
:105360008B488C4969440860FBF77AF9894969449C
:105370000968421C7248884B6B441860FBF798F927
:1053800085496944096870486844007882006F481C
:105390008018406822F059FCFFE7FFE7FFE720E1B3
:1053A0006F48807B032861D1FFE7694800780028B7
:1053B00015D1FFE7624879496944086078490622B7
:1053C000FBF776F97549694409685F4868440078D5
:1053D00082005E488018406822F037FC45E05C4857
:1053E000007801281DD1FFE76E486F4969440860C5
:1053F000FBF736F96C4969440968421C50486B4B0D
:105400006B441860FBF754F96849694409684E48D1
:105410006844007882004D488018406822F015FCEE
:1054200022E04B48007802281DD1FFE7604861491F
:1054300069440860FBF714F95E4969440968421C35
:105440003F485D4B6B441860FBF732F95A49694499
:1054500009683D486844007882003C4880184068EC
:1054600022F0F3FBFFE7FFE7FFE7B9E03C48807B72
:10547000042800D0B2E036480078002815D1FFE7B4
:105480002F484E49694408604D490522FBF710F941
:105490004A49694409682C486844007882002B48CE
:1054A0008018406822F0D1FB45E0294800780128A7
:1054B0001DD1FFE74348444969440860FBF7D0F831
:1054C000414969440968421C1D48404B6B441860BF
:1054D000FBF7EEF83D49694409681B4868440078C9
:1054E00082001A488018406822F0AFFB22E018487A
:1054F000007802281DD1FFE7354836496944086025
:10550000FBF7AEF8334969440968421C0C48324B3A
:105510006B441860FBF7CCF82F49694409680A48C6
:1055200068440078820009488018406822F08DFBAA
:10553000FFE7FFE7FFE752E0F80600202C07000036
:10554000848B002030070000A0080000309300206A
:10555000099400200C070020240700002807000001
:10556000278C0020740700201C0700002007000083
:10557000880700201407000018070000100700002B
:10558000C3A70400D0060020080700000C07000095
:10559000E40600200007000004070000FC060000ED
:1055A000D2A7040080060020F4060000F8060000E0
:1055B00090060020EC060000F0060000E80600005F
:1055C000B8A7040034090020E0060000E40600004B
:1055D00048090020D8060000DC060000FFE7FFE7CE
:1055E000FFE7FFE7FFE7F4486844F44969440860CF
:1055F0000178F348001DF34A6A441060890040585E
:1056000023F086FAEF4868440068EC496944096869
:1056100009788900405823F0C7FDE84969440968C2
:10562000E54868440068401C087007E0E2486844A8
:105630000068401CE04969440870FFE7E248C27B0B
:10564000017C09028918427C807C000280180004D9
:105650004018DE49CB7B0A7C1202D2184B7C897C35
:105660000902C91809048918884220D1FFE7D648E1
:10567000C27C017D09028918427D807D000280186C
:1056800000044018D149CB7C0A7D1202D2184B7D10
:10569000897D0902C91809048918884207D1FFE7E2
:1056A000C948807BC949897B884200D1D6E006F091
:1056B00069FEC548C27B017C09028A18437C817C53
:1056C0000902C91809048918C14A6A441160807B1B
:1056D000002806D1FFE7BE486844006806F008FFCE
:1056E00030E0B948807B012806D1FFE7B84868441C
:1056F000006807F06FF924E0B348807B022806D1E8
:10570000FFE7B3486844006806F09EFE18E0AE4824
:10571000807B032806D1FFE7AD486844006806F0A7
:1057200087FF0CE0A848807B042806D1FFE7A84843
:10573000684400681AF02AF800E0FFE7FFE7FFE797
:10574000FFE7FFE706F004FEA248A3491422FAF798
:10575000AFFF06F017FE9C48C27C017D09028A1843
:10576000437D817D0902C91809048918984A6A4451
:105770001160807B002806D1FFE7954868440068E7
:1057800006F0B6FE30E09048807B012806D1FFE7A6
:105790008F486844006807F01DF924E08A48807B40
:1057A000022806D1FFE78A486844006806F04CFEEC
:1057B00018E08548807B032806D1FFE784486844C9
:1057C000006806F035FF0CE07F48807B042806D196
:1057D000FFE77F486844006819F0D8FF00E0FFE762
:1057E000FFE7FFE7FFE7FFE77C487D496944086082
:1057F0007C49784A784BFAF7A9FE794969440968E7
:105800006D486844784A6A44106002786C48001D0C
:10581000764B6B4418609200805822F016FA724959
:1058200069440968714868440068097889004058EB
:1058300023F06EF96D48684400686B496944096853
:1058400009788900405823F0AFFC6749694409682A
:10585000594868440068401C087007E0564868448E
:105860000068401C544969440870FFE75648C27DEF
:10587000017E09028918427E807E000280180004A1
:1058800040185249CB7D0A7E1202D2184B7E897E87
:105890000902C91809048918884277D0FFE706F081
:1058A00071FD4948C27D017E09028918427E807ED1
:1058B00000028018000440184D49694408604C48B3
:1058C00068440068002814D5FFE749486844006828
:1058D00040424749694408603F482D2101704449CE
:1058E00069440968401C012207F022FA1AF032F8D4
:1058F00009E03F49694409683748012207F018FA6E
:1059000006F05AFDFFE73048C27D017E0902891882
:10591000427E807E0002801800044018002806D1D4
:10592000FFE706F02FFD2C4930200870FFE72248E2
:10593000684430496944086001782148001D2E4AB6
:105940006A44106089004058234922F07EF92949B1
:105950006944096828486844006809788900405803
:1059600023F0D6F82448684400682249694409684D
:1059700009788900405823F017FC1E4969440968DA
:105980000D4868440068401C087007E00A486844F5
:105990000068401C084969440870FFE70A48C17E56
:1059A000007F000240180949CA7E097F0902891850
:1059B000884276D022E0C046A0080000D40600004D
:1059C00030930020D0060000278C0020BD8D0020E1
:1059D00090080000B68B0020848B0020B492002039
:1059E000C4060000CAA70400CC060000C8060000D8
:1059F00078080000C0060000BC06000006F0C2FCEB
:105A0000FC48FD4969440860C17E007F00024118DE
:105A1000FA48684401800188FE48012207F086F8B0
:105A200006F0CAFCFA4868440068C17E007F0002A4
:105A30004018002806D1FFE706F0A4FCF549302005
:105A40000870FFE7F4486844F44969440860017845
:105A5000F348001DF34A6A44106089004058ED493C
:105A600022F0F3F8FD4969440968FE48684400687B
:105A700009788900405823F04BF8FA4868440068D8
:105A8000F6496944096809788900405823F08CFB7D
:105A9000F24969440968F04868440068401C08708D
:105AA00007E0ED4868440068401CEB496944087011
:105AB000FFE7D648407FEC49497F884216D1FFE78F
:105AC000D248807FE849897F88420FD1FFE7E748C5
:105AD0000078E7490978884208D1FFE7CB48007988
